{
  "contracts/Launchpad.sol": {
    "Launchpad": {
      "abi": [
        {
          "inputs": [],
          "stateMutability": "nonpayable",
          "type": "constructor"
        },
        {
          "inputs": [
            {
              "internalType": "address",
              "name": "owner",
              "type": "address"
            }
          ],
          "name": "OwnableInvalidOwner",
          "type": "error"
        },
        {
          "inputs": [
            {
              "internalType": "address",
              "name": "account",
              "type": "address"
            }
          ],
          "name": "OwnableUnauthorizedAccount",
          "type": "error"
        },
        {
          "anonymous": false,
          "inputs": [
            {
              "indexed": true,
              "internalType": "address",
              "name": "previousOwner",
              "type": "address"
            },
            {
              "indexed": true,
              "internalType": "address",
              "name": "newOwner",
              "type": "address"
            }
          ],
          "name": "OwnershipTransferred",
          "type": "event"
        },
        {
          "anonymous": false,
          "inputs": [
            {
              "indexed": true,
              "internalType": "address",
              "name": "creator",
              "type": "address"
            },
            {
              "indexed": false,
              "internalType": "address",
              "name": "tokenAddress",
              "type": "address"
            },
            {
              "indexed": false,
              "internalType": "address",
              "name": "poolAddress",
              "type": "address"
            }
          ],
          "name": "TokenLaunched",
          "type": "event"
        },
        {
          "inputs": [],
          "name": "factory",
          "outputs": [
            {
              "internalType": "contract ISpookySwapFactory",
              "name": "",
              "type": "address"
            }
          ],
          "stateMutability": "view",
          "type": "function"
        },
        {
          "inputs": [
            {
              "internalType": "string",
              "name": "name",
              "type": "string"
            },
            {
              "internalType": "string",
              "name": "symbol",
              "type": "string"
            },
            {
              "internalType": "uint256",
              "name": "initialSupply",
              "type": "uint256"
            },
            {
              "internalType": "address",
              "name": "pairedToken",
              "type": "address"
            }
          ],
          "name": "launchToken",
          "outputs": [
            {
              "internalType": "address",
              "name": "",
              "type": "address"
            }
          ],
          "stateMutability": "nonpayable",
          "type": "function"
        },
        {
          "inputs": [],
          "name": "owner",
          "outputs": [
            {
              "internalType": "address",
              "name": "",
              "type": "address"
            }
          ],
          "stateMutability": "view",
          "type": "function"
        },
        {
          "inputs": [],
          "name": "positionManager",
          "outputs": [
            {
              "internalType": "contract IPositionManager",
              "name": "",
              "type": "address"
            }
          ],
          "stateMutability": "view",
          "type": "function"
        },
        {
          "inputs": [],
          "name": "quoter",
          "outputs": [
            {
              "internalType": "contract IQuoter",
              "name": "",
              "type": "address"
            }
          ],
          "stateMutability": "view",
          "type": "function"
        },
        {
          "inputs": [],
          "name": "renounceOwnership",
          "outputs": [],
          "stateMutability": "nonpayable",
          "type": "function"
        },
        {
          "inputs": [],
          "name": "swapRouter",
          "outputs": [
            {
              "internalType": "contract ISwapRouter",
              "name": "",
              "type": "address"
            }
          ],
          "stateMutability": "view",
          "type": "function"
        },
        {
          "inputs": [
            {
              "internalType": "address",
              "name": "newOwner",
              "type": "address"
            }
          ],
          "name": "transferOwnership",
          "outputs": [],
          "stateMutability": "nonpayable",
          "type": "function"
        }
      ],
      "evm": {
        "bytecode": {
          "linkReferences": {},
          "object": "6080604052733d91b700252e0e3ee7805d12e048a988ab69c8ad600160006101000a81548173ffffffffffffffffffffffffffffffffffffffff021916908373ffffffffffffffffffffffffffffffffffffffff16021790555073f807aca27b1550fe778fd4e7013bb57480b17fac600260006101000a81548173ffffffffffffffffffffffffffffffffffffffff021916908373ffffffffffffffffffffffffffffffffffffffff160217905550730c2bc01d435cfeb2dc6ad7cec0e473e2dbabdd87600360006101000a81548173ffffffffffffffffffffffffffffffffffffffff021916908373ffffffffffffffffffffffffffffffffffffffff16021790555073593856bbfd6aaf0b714277c0bf06307900d1aa68600460006101000a81548173ffffffffffffffffffffffffffffffffffffffff021916908373ffffffffffffffffffffffffffffffffffffffff16021790555034801561016457600080fd5b5033600073ffffffffffffffffffffffffffffffffffffffff168173ffffffffffffffffffffffffffffffffffffffff16036101d85760006040517f1e4fbdf70000000000000000000000000000000000000000000000000000000081526004016101cf91906102f2565b60405180910390fd5b6101e7816101ed60201b60201c565b5061030d565b60008060009054906101000a900473ffffffffffffffffffffffffffffffffffffffff169050816000806101000a81548173ffffffffffffffffffffffffffffffffffffffff021916908373ffffffffffffffffffffffffffffffffffffffff1602179055508173ffffffffffffffffffffffffffffffffffffffff168173ffffffffffffffffffffffffffffffffffffffff167f8be0079c531659141344cd1fd0a4f28419497f9722a3daafe3b4186f6b6457e060405160405180910390a35050565b600073ffffffffffffffffffffffffffffffffffffffff82169050919050565b60006102dc826102b1565b9050919050565b6102ec816102d1565b82525050565b600060208201905061030760008301846102e3565b92915050565b612cd18061031c6000396000f3fe608060405234801561001057600080fd5b50600436106100885760003560e01c8063c31c9c071161005b578063c31c9c0714610103578063c45a015514610121578063c6bbd5a71461013f578063f2fde38b1461015d57610088565b8063715018a61461008d578063791b98bc146100975780638da5cb5b146100b55780638ff0bb99146100d3575b600080fd5b610095610179565b005b61009f61018d565b6040516100ac919061082a565b60405180910390f35b6100bd6101b3565b6040516100ca9190610866565b60405180910390f35b6100ed60048036038101906100e89190610a3d565b6101dc565b6040516100fa9190610866565b60405180910390f35b61010b610553565b6040516101189190610afd565b60405180910390f35b610129610579565b6040516101369190610b39565b60405180910390f35b61014761059f565b6040516101549190610b75565b60405180910390f35b61017760048036038101906101729190610b90565b6105c5565b005b61018161064b565b61018b60006106d2565b565b600260009054906101000a900473ffffffffffffffffffffffffffffffffffffffff1681565b60008060009054906101000a900473ffffffffffffffffffffffffffffffffffffffff16905090565b6000808585856040516101ee9061079e565b6101fa93929190610c4b565b604051809103906000f080158015610216573d6000803e3d6000fd5b5090508073ffffffffffffffffffffffffffffffffffffffff1663f2fde38b336040518263ffffffff1660e01b81526004016102529190610866565b600060405180830381600087803b15801561026c57600080fd5b505af1158015610280573d6000803e3d6000fd5b505050506000600160009054906101000a900473ffffffffffffffffffffffffffffffffffffffff1673ffffffffffffffffffffffffffffffffffffffff16631698ee828386610bb86040518463ffffffff1660e01b81526004016102e793929190610cae565b602060405180830381865afa158015610304573d6000803e3d6000fd5b505050506040513d601f19601f820116820180604052508101906103289190610cfa565b9050600073ffffffffffffffffffffffffffffffffffffffff168173ffffffffffffffffffffffffffffffffffffffff160361040557600160009054906101000a900473ffffffffffffffffffffffffffffffffffffffff1673ffffffffffffffffffffffffffffffffffffffff1663a16712958386610bb86040518463ffffffff1660e01b81526004016103bf93929190610cae565b6020604051808303816000875af11580156103de573d6000803e3d6000fd5b505050506040513d601f19601f820116820180604052508101906104029190610cfa565b90505b600260009054906101000a900473ffffffffffffffffffffffffffffffffffffffff1673ffffffffffffffffffffffffffffffffffffffff16632d7371138386610bb87fffffffffffffffffffffffffffffffffffffffffffffffffffffffffffff15a061ea60683635c9adc5dea00000806000803361012c426104899190610d56565b6040518c63ffffffff1660e01b81526004016104af9b9a99989796959493929190610e83565b6080604051808303816000875af11580156104ce573d6000803e3d6000fd5b505050506040513d601f19601f820116820180604052508101906104f29190610f8b565b505050503373ffffffffffffffffffffffffffffffffffffffff167f3a2480ce53a8c9229556c140c60039b8c13bce2009773b802a638deec98eae1f838360405161053e929190610ff2565b60405180910390a28192505050949350505050565b600360009054906101000a900473ffffffffffffffffffffffffffffffffffffffff1681565b600160009054906101000a900473ffffffffffffffffffffffffffffffffffffffff1681565b600460009054906101000a900473ffffffffffffffffffffffffffffffffffffffff1681565b6105cd61064b565b600073ffffffffffffffffffffffffffffffffffffffff168173ffffffffffffffffffffffffffffffffffffffff160361063f5760006040517f1e4fbdf70000000000000000000000000000000000000000000000000000000081526004016106369190610866565b60405180910390fd5b610648816106d2565b50565b610653610796565b73ffffffffffffffffffffffffffffffffffffffff166106716101b3565b73ffffffffffffffffffffffffffffffffffffffff16146106d057610694610796565b6040517f118cdaa70000000000000000000000000000000000000000000000000000000081526004016106c79190610866565b60405180910390fd5b565b60008060009054906101000a900473ffffffffffffffffffffffffffffffffffffffff169050816000806101000a81548173ffffffffffffffffffffffffffffffffffffffff021916908373ffffffffffffffffffffffffffffffffffffffff1602179055508173ffffffffffffffffffffffffffffffffffffffff168173ffffffffffffffffffffffffffffffffffffffff167f8be0079c531659141344cd1fd0a4f28419497f9722a3daafe3b4186f6b6457e060405160405180910390a35050565b600033905090565b611c808061101c83390190565b600073ffffffffffffffffffffffffffffffffffffffff82169050919050565b6000819050919050565b60006107f06107eb6107e6846107ab565b6107cb565b6107ab565b9050919050565b6000610802826107d5565b9050919050565b6000610814826107f7565b9050919050565b61082481610809565b82525050565b600060208201905061083f600083018461081b565b92915050565b6000610850826107ab565b9050919050565b61086081610845565b82525050565b600060208201905061087b6000830184610857565b92915050565b6000604051905090565b600080fd5b600080fd5b600080fd5b600080fd5b6000601f19601f8301169050919050565b7f4e487b7100000000000000000000000000000000000000000000000000000000600052604160045260246000fd5b6108e88261089f565b810181811067ffffffffffffffff82111715610907576109066108b0565b5b80604052505050565b600061091a610881565b905061092682826108df565b919050565b600067ffffffffffffffff821115610946576109456108b0565b5b61094f8261089f565b9050602081019050919050565b82818337600083830152505050565b600061097e6109798461092b565b610910565b90508281526020810184848401111561099a5761099961089a565b5b6109a584828561095c565b509392505050565b600082601f8301126109c2576109c1610895565b5b81356109d284826020860161096b565b91505092915050565b6000819050919050565b6109ee816109db565b81146109f957600080fd5b50565b600081359050610a0b816109e5565b92915050565b610a1a81610845565b8114610a2557600080fd5b50565b600081359050610a3781610a11565b92915050565b60008060008060808587031215610a5757610a5661088b565b5b600085013567ffffffffffffffff811115610a7557610a74610890565b5b610a81878288016109ad565b945050602085013567ffffffffffffffff811115610aa257610aa1610890565b5b610aae878288016109ad565b9350506040610abf878288016109fc565b9250506060610ad087828801610a28565b91505092959194509250565b6000610ae7826107f7565b9050919050565b610af781610adc565b82525050565b6000602082019050610b126000830184610aee565b92915050565b6000610b23826107f7565b9050919050565b610b3381610b18565b82525050565b6000602082019050610b4e6000830184610b2a565b92915050565b6000610b5f826107f7565b9050919050565b610b6f81610b54565b82525050565b6000602082019050610b8a6000830184610b66565b92915050565b600060208284031215610ba657610ba561088b565b5b6000610bb484828501610a28565b91505092915050565b600081519050919050565b600082825260208201905092915050565b60005b83811015610bf7578082015181840152602081019050610bdc565b60008484015250505050565b6000610c0e82610bbd565b610c188185610bc8565b9350610c28818560208601610bd9565b610c318161089f565b840191505092915050565b610c45816109db565b82525050565b60006060820190508181036000830152610c658186610c03565b90508181036020830152610c798185610c03565b9050610c886040830184610c3c565b949350505050565b600062ffffff82169050919050565b610ca881610c90565b82525050565b6000606082019050610cc36000830186610857565b610cd06020830185610857565b610cdd6040830184610c9f565b949350505050565b600081519050610cf481610a11565b92915050565b600060208284031215610d1057610d0f61088b565b5b6000610d1e84828501610ce5565b91505092915050565b7f4e487b7100000000000000000000000000000000000000000000000000000000600052601160045260246000fd5b6000610d61826109db565b9150610d6c836109db565b9250828201905080821115610d8457610d83610d27565b5b92915050565b6000819050919050565b60008160020b9050919050565b6000610dbc610db7610db284610d8a565b6107cb565b610d94565b9050919050565b610dcc81610da1565b82525050565b6000819050919050565b6000610df7610df2610ded84610dd2565b6107cb565b610d94565b9050919050565b610e0781610ddc565b82525050565b6000819050919050565b6000610e32610e2d610e2884610e0d565b6107cb565b6109db565b9050919050565b610e4281610e17565b82525050565b6000819050919050565b6000610e6d610e68610e6384610e48565b6107cb565b6109db565b9050919050565b610e7d81610e52565b82525050565b600061016082019050610e99600083018e610857565b610ea6602083018d610857565b610eb3604083018c610c9f565b610ec0606083018b610dc3565b610ecd608083018a610dfe565b610eda60a0830189610e39565b610ee760c0830188610e39565b610ef460e0830187610e74565b610f02610100830186610e74565b610f10610120830185610857565b610f1e610140830184610c3c565b9c9b505050505050505050505050565b600081519050610f3d816109e5565b92915050565b60006fffffffffffffffffffffffffffffffff82169050919050565b610f6881610f43565b8114610f7357600080fd5b50565b600081519050610f8581610f5f565b92915050565b60008060008060808587031215610fa557610fa461088b565b5b6000610fb387828801610f2e565b9450506020610fc487828801610f76565b9350506040610fd587828801610f2e565b9250506060610fe687828801610f2e565b91505092959194509250565b60006040820190506110076000830185610857565b6110146020830184610857565b939250505056fe608060405234801561001057600080fd5b50604051611c80380380611c808339818101604052810190610032919061060f565b338383816003908161004491906108b1565b50806004908161005491906108b1565b505050600073ffffffffffffffffffffffffffffffffffffffff168173ffffffffffffffffffffffffffffffffffffffff16036100c95760006040517f1e4fbdf70000000000000000000000000000000000000000000000000000000081526004016100c091906109c4565b60405180910390fd5b6100d8816100f160201b60201c565b506100e933826101b760201b60201c565b505050610aa3565b6000600560009054906101000a900473ffffffffffffffffffffffffffffffffffffffff16905081600560006101000a81548173ffffffffffffffffffffffffffffffffffffffff021916908373ffffffffffffffffffffffffffffffffffffffff1602179055508173ffffffffffffffffffffffffffffffffffffffff168173ffffffffffffffffffffffffffffffffffffffff167f8be0079c531659141344cd1fd0a4f28419497f9722a3daafe3b4186f6b6457e060405160405180910390a35050565b600073ffffffffffffffffffffffffffffffffffffffff168273ffffffffffffffffffffffffffffffffffffffff16036102295760006040517fec442f0500000000000000000000000000000000000000000000000000000000815260040161022091906109c4565b60405180910390fd5b61023b6000838361023f60201b60201c565b5050565b600073ffffffffffffffffffffffffffffffffffffffff168373ffffffffffffffffffffffffffffffffffffffff16036102915780600260008282546102859190610a0e565b92505081905550610364565b60008060008573ffffffffffffffffffffffffffffffffffffffff1673ffffffffffffffffffffffffffffffffffffffff1681526020019081526020016000205490508181101561031d578381836040517fe450d38c00000000000000000000000000000000000000000000000000000000815260040161031493929190610a51565b60405180910390fd5b8181036000808673ffffffffffffffffffffffffffffffffffffffff1673ffffffffffffffffffffffffffffffffffffffff16815260200190815260200160002081905550505b600073ffffffffffffffffffffffffffffffffffffffff168273ffffffffffffffffffffffffffffffffffffffff16036103ad57806002600082825403925050819055506103fa565b806000808473ffffffffffffffffffffffffffffffffffffffff1673ffffffffffffffffffffffffffffffffffffffff168152602001908152602001600020600082825401925050819055505b8173ffffffffffffffffffffffffffffffffffffffff168373ffffffffffffffffffffffffffffffffffffffff167fddf252ad1be2c89b69c2b068fc378daa952ba7f163c4a11628f55a4df523b3ef836040516104579190610a88565b60405180910390a3505050565b6000604051905090565b600080fd5b600080fd5b600080fd5b600080fd5b6000601f19601f8301169050919050565b7f4e487b7100000000000000000000000000000000000000000000000000000000600052604160045260246000fd5b6104cb82610482565b810181811067ffffffffffffffff821117156104ea576104e9610493565b5b80604052505050565b60006104fd610464565b905061050982826104c2565b919050565b600067ffffffffffffffff82111561052957610528610493565b5b61053282610482565b9050602081019050919050565b60005b8381101561055d578082015181840152602081019050610542565b60008484015250505050565b600061057c6105778461050e565b6104f3565b9050828152602081018484840111156105985761059761047d565b5b6105a384828561053f565b509392505050565b600082601f8301126105c0576105bf610478565b5b81516105d0848260208601610569565b91505092915050565b6000819050919050565b6105ec816105d9565b81146105f757600080fd5b50565b600081519050610609816105e3565b92915050565b6000806000606084860312156106285761062761046e565b5b600084015167ffffffffffffffff81111561064657610645610473565b5b610652868287016105ab565b935050602084015167ffffffffffffffff81111561067357610672610473565b5b61067f868287016105ab565b9250506040610690868287016105fa565b9150509250925092565b600081519050919050565b7f4e487b7100000000000000000000000000000000000000000000000000000000600052602260045260246000fd5b600060028204905060018216806106ec57607f821691505b6020821081036106ff576106fe6106a5565b5b50919050565b60008190508160005260206000209050919050565b60006020601f8301049050919050565b600082821b905092915050565b6000600883026107677fffffffffffffffffffffffffffffffffffffffffffffffffffffffffffffffff8261072a565b610771868361072a565b95508019841693508086168417925050509392505050565b6000819050919050565b60006107ae6107a96107a4846105d9565b610789565b6105d9565b9050919050565b6000819050919050565b6107c883610793565b6107dc6107d4826107b5565b848454610737565b825550505050565b600090565b6107f16107e4565b6107fc8184846107bf565b505050565b5b81811015610820576108156000826107e9565b600181019050610802565b5050565b601f8211156108655761083681610705565b61083f8461071a565b8101602085101561084e578190505b61086261085a8561071a565b830182610801565b50505b505050565b600082821c905092915050565b60006108886000198460080261086a565b1980831691505092915050565b60006108a18383610877565b9150826002028217905092915050565b6108ba8261069a565b67ffffffffffffffff8111156108d3576108d2610493565b5b6108dd82546106d4565b6108e8828285610824565b600060209050601f83116001811461091b5760008415610909578287015190505b6109138582610895565b86555061097b565b601f19841661092986610705565b60005b828110156109515784890151825560018201915060208501945060208101905061092c565b8683101561096e578489015161096a601f891682610877565b8355505b6001600288020188555050505b505050505050565b600073ffffffffffffffffffffffffffffffffffffffff82169050919050565b60006109ae82610983565b9050919050565b6109be816109a3565b82525050565b60006020820190506109d960008301846109b5565b92915050565b7f4e487b7100000000000000000000000000000000000000000000000000000000600052601160045260246000fd5b6000610a19826105d9565b9150610a24836105d9565b9250828201905080821115610a3c57610a3b6109df565b5b92915050565b610a4b816105d9565b82525050565b6000606082019050610a6660008301866109b5565b610a736020830185610a42565b610a806040830184610a42565b949350505050565b6000602082019050610a9d6000830184610a42565b92915050565b6111ce80610ab26000396000f3fe608060405234801561001057600080fd5b50600436106100cf5760003560e01c806370a082311161008c57806395d89b411161006657806395d89b4114610202578063a9059cbb14610220578063dd62ed3e14610250578063f2fde38b14610280576100cf565b806370a08231146101aa578063715018a6146101da5780638da5cb5b146101e4576100cf565b806306fdde03146100d4578063095ea7b3146100f257806318160ddd1461012257806323b872dd14610140578063313ce5671461017057806342966c681461018e575b600080fd5b6100dc61029c565b6040516100e99190610df5565b60405180910390f35b61010c60048036038101906101079190610eb0565b61032e565b6040516101199190610f0b565b60405180910390f35b61012a610351565b6040516101379190610f35565b60405180910390f35b61015a60048036038101906101559190610f50565b61035b565b6040516101679190610f0b565b60405180910390f35b61017861038a565b6040516101859190610fbf565b60405180910390f35b6101a860048036038101906101a39190610fda565b610393565b005b6101c460048036038101906101bf9190611007565b6103af565b6040516101d19190610f35565b60405180910390f35b6101e26103f7565b005b6101ec61040b565b6040516101f99190611043565b60405180910390f35b61020a610435565b6040516102179190610df5565b60405180910390f35b61023a60048036038101906102359190610eb0565b6104c7565b6040516102479190610f0b565b60405180910390f35b61026a6004803603810190610265919061105e565b6104ea565b6040516102779190610f35565b60405180910390f35b61029a60048036038101906102959190611007565b610571565b005b6060600380546102ab906110cd565b80601f01602080910402602001604051908101604052809291908181526020018280546102d7906110cd565b80156103245780601f106102f957610100808354040283529160200191610324565b820191906000526020600020905b81548152906001019060200180831161030757829003601f168201915b5050505050905090565b6000806103396105f7565b90506103468185856105ff565b600191505092915050565b6000600254905090565b6000806103666105f7565b9050610373858285610611565b61037e8585856106a6565b60019150509392505050565b60006012905090565b61039b61079a565b6103ac6103a661040b565b82610821565b50565b60008060008373ffffffffffffffffffffffffffffffffffffffff1673ffffffffffffffffffffffffffffffffffffffff168152602001908152602001600020549050919050565b6103ff61079a565b61040960006108a3565b565b6000600560009054906101000a900473ffffffffffffffffffffffffffffffffffffffff16905090565b606060048054610444906110cd565b80601f0160208091040260200160405190810160405280929190818152602001828054610470906110cd565b80156104bd5780601f10610492576101008083540402835291602001916104bd565b820191906000526020600020905b8154815290600101906020018083116104a057829003601f168201915b5050505050905090565b6000806104d26105f7565b90506104df8185856106a6565b600191505092915050565b6000600160008473ffffffffffffffffffffffffffffffffffffffff1673ffffffffffffffffffffffffffffffffffffffff16815260200190815260200160002060008373ffffffffffffffffffffffffffffffffffffffff1673ffffffffffffffffffffffffffffffffffffffff16815260200190815260200160002054905092915050565b61057961079a565b600073ffffffffffffffffffffffffffffffffffffffff168173ffffffffffffffffffffffffffffffffffffffff16036105eb5760006040517f1e4fbdf70000000000000000000000000000000000000000000000000000000081526004016105e29190611043565b60405180910390fd5b6105f4816108a3565b50565b600033905090565b61060c8383836001610969565b505050565b600061061d84846104ea565b90507fffffffffffffffffffffffffffffffffffffffffffffffffffffffffffffffff8110156106a05781811015610690578281836040517ffb8f41b2000000000000000000000000000000000000000000000000000000008152600401610687939291906110fe565b60405180910390fd5b61069f84848484036000610969565b5b50505050565b600073ffffffffffffffffffffffffffffffffffffffff168373ffffffffffffffffffffffffffffffffffffffff16036107185760006040517f96c6fd1e00000000000000000000000000000000000000000000000000000000815260040161070f9190611043565b60405180910390fd5b600073ffffffffffffffffffffffffffffffffffffffff168273ffffffffffffffffffffffffffffffffffffffff160361078a5760006040517fec442f050000000000000000000000000000000000000000000000000000000081526004016107819190611043565b60405180910390fd5b610795838383610b40565b505050565b6107a26105f7565b73ffffffffffffffffffffffffffffffffffffffff166107c061040b565b73ffffffffffffffffffffffffffffffffffffffff161461081f576107e36105f7565b6040517f118cdaa70000000000000000000000000000000000000000000000000000000081526004016108169190611043565b60405180910390fd5b565b600073ffffffffffffffffffffffffffffffffffffffff168273ffffffffffffffffffffffffffffffffffffffff16036108935760006040517f96c6fd1e00000000000000000000000000000000000000000000000000000000815260040161088a9190611043565b60405180910390fd5b61089f82600083610b40565b5050565b6000600560009054906101000a900473ffffffffffffffffffffffffffffffffffffffff16905081600560006101000a81548173ffffffffffffffffffffffffffffffffffffffff021916908373ffffffffffffffffffffffffffffffffffffffff1602179055508173ffffffffffffffffffffffffffffffffffffffff168173ffffffffffffffffffffffffffffffffffffffff167f8be0079c531659141344cd1fd0a4f28419497f9722a3daafe3b4186f6b6457e060405160405180910390a35050565b600073ffffffffffffffffffffffffffffffffffffffff168473ffffffffffffffffffffffffffffffffffffffff16036109db5760006040517fe602df050000000000000000000000000000000000000000000000000000000081526004016109d29190611043565b60405180910390fd5b600073ffffffffffffffffffffffffffffffffffffffff168373ffffffffffffffffffffffffffffffffffffffff1603610a4d5760006040517f94280d62000000000000000000000000000000000000000000000000000000008152600401610a449190611043565b60405180910390fd5b81600160008673ffffffffffffffffffffffffffffffffffffffff1673ffffffffffffffffffffffffffffffffffffffff16815260200190815260200160002060008573ffffffffffffffffffffffffffffffffffffffff1673ffffffffffffffffffffffffffffffffffffffff168152602001908152602001600020819055508015610b3a578273ffffffffffffffffffffffffffffffffffffffff168473ffffffffffffffffffffffffffffffffffffffff167f8c5be1e5ebec7d5bd14f71427d1e84f3dd0314c0f7b2291e5b200ac8c7c3b92584604051610b319190610f35565b60405180910390a35b50505050565b600073ffffffffffffffffffffffffffffffffffffffff168373ffffffffffffffffffffffffffffffffffffffff1603610b92578060026000828254610b869190611164565b92505081905550610c65565b60008060008573ffffffffffffffffffffffffffffffffffffffff1673ffffffffffffffffffffffffffffffffffffffff16815260200190815260200160002054905081811015610c1e578381836040517fe450d38c000000000000000000000000000000000000000000000000000000008152600401610c15939291906110fe565b60405180910390fd5b8181036000808673ffffffffffffffffffffffffffffffffffffffff1673ffffffffffffffffffffffffffffffffffffffff16815260200190815260200160002081905550505b600073ffffffffffffffffffffffffffffffffffffffff168273ffffffffffffffffffffffffffffffffffffffff1603610cae5780600260008282540392505081905550610cfb565b806000808473ffffffffffffffffffffffffffffffffffffffff1673ffffffffffffffffffffffffffffffffffffffff168152602001908152602001600020600082825401925050819055505b8173ffffffffffffffffffffffffffffffffffffffff168373ffffffffffffffffffffffffffffffffffffffff167fddf252ad1be2c89b69c2b068fc378daa952ba7f163c4a11628f55a4df523b3ef83604051610d589190610f35565b60405180910390a3505050565b600081519050919050565b600082825260208201905092915050565b60005b83811015610d9f578082015181840152602081019050610d84565b60008484015250505050565b6000601f19601f8301169050919050565b6000610dc782610d65565b610dd18185610d70565b9350610de1818560208601610d81565b610dea81610dab565b840191505092915050565b60006020820190508181036000830152610e0f8184610dbc565b905092915050565b600080fd5b600073ffffffffffffffffffffffffffffffffffffffff82169050919050565b6000610e4782610e1c565b9050919050565b610e5781610e3c565b8114610e6257600080fd5b50565b600081359050610e7481610e4e565b92915050565b6000819050919050565b610e8d81610e7a565b8114610e9857600080fd5b50565b600081359050610eaa81610e84565b92915050565b60008060408385031215610ec757610ec6610e17565b5b6000610ed585828601610e65565b9250506020610ee685828601610e9b565b9150509250929050565b60008115159050919050565b610f0581610ef0565b82525050565b6000602082019050610f206000830184610efc565b92915050565b610f2f81610e7a565b82525050565b6000602082019050610f4a6000830184610f26565b92915050565b600080600060608486031215610f6957610f68610e17565b5b6000610f7786828701610e65565b9350506020610f8886828701610e65565b9250506040610f9986828701610e9b565b9150509250925092565b600060ff82169050919050565b610fb981610fa3565b82525050565b6000602082019050610fd46000830184610fb0565b92915050565b600060208284031215610ff057610fef610e17565b5b6000610ffe84828501610e9b565b91505092915050565b60006020828403121561101d5761101c610e17565b5b600061102b84828501610e65565b91505092915050565b61103d81610e3c565b82525050565b60006020820190506110586000830184611034565b92915050565b6000806040838503121561107557611074610e17565b5b600061108385828601610e65565b925050602061109485828601610e65565b9150509250929050565b7f4e487b7100000000000000000000000000000000000000000000000000000000600052602260045260246000fd5b600060028204905060018216806110e557607f821691505b6020821081036110f8576110f761109e565b5b50919050565b60006060820190506111136000830186611034565b6111206020830185610f26565b61112d6040830184610f26565b949350505050565b7f4e487b7100000000000000000000000000000000000000000000000000000000600052601160045260246000fd5b600061116f82610e7a565b915061117a83610e7a565b925082820190508082111561119257611191611135565b5b9291505056fea26469706673582212205d83e54a67c7f8ecc3fa8fd4bec3a28f48115cf9215e35e711df093c91c8277364736f6c634300081c0033a26469706673582212200cd2f5ddaa8a1f7ff584eb323a8b33a446babec4f2ef703679e743218ec1f76264736f6c634300081c0033",
          "opcodes": "PUSH1 0x80 PUSH1 0x40 MSTORE PUSH20 0x3D91B700252E0E3EE7805D12E048A988AB69C8AD PUSH1 0x1 PUSH1 0x0 PUSH2 0x100 EXP DUP2 SLOAD DUP2 PUSH20 0xFFFFFFFFFFFFFFFFFFFFFFFFFFFFFFFFFFFFFFFF MUL NOT AND SWAP1 DUP4 PUSH20 0xFFFFFFFFFFFFFFFFFFFFFFFFFFFFFFFFFFFFFFFF AND MUL OR SWAP1 SSTORE POP PUSH20 0xF807ACA27B1550FE778FD4E7013BB57480B17FAC PUSH1 0x2 PUSH1 0x0 PUSH2 0x100 EXP DUP2 SLOAD DUP2 PUSH20 0xFFFFFFFFFFFFFFFFFFFFFFFFFFFFFFFFFFFFFFFF MUL NOT AND SWAP1 DUP4 PUSH20 0xFFFFFFFFFFFFFFFFFFFFFFFFFFFFFFFFFFFFFFFF AND MUL OR SWAP1 SSTORE POP PUSH20 0xC2BC01D435CFEB2DC6AD7CEC0E473E2DBABDD87 PUSH1 0x3 PUSH1 0x0 PUSH2 0x100 EXP DUP2 SLOAD DUP2 PUSH20 0xFFFFFFFFFFFFFFFFFFFFFFFFFFFFFFFFFFFFFFFF MUL NOT AND SWAP1 DUP4 PUSH20 0xFFFFFFFFFFFFFFFFFFFFFFFFFFFFFFFFFFFFFFFF AND MUL OR SWAP1 SSTORE POP PUSH20 0x593856BBFD6AAF0B714277C0BF06307900D1AA68 PUSH1 0x4 PUSH1 0x0 PUSH2 0x100 EXP DUP2 SLOAD DUP2 PUSH20 0xFFFFFFFFFFFFFFFFFFFFFFFFFFFFFFFFFFFFFFFF MUL NOT AND SWAP1 DUP4 PUSH20 0xFFFFFFFFFFFFFFFFFFFFFFFFFFFFFFFFFFFFFFFF AND MUL OR SWAP1 SSTORE POP CALLVALUE DUP1 ISZERO PUSH2 0x164 JUMPI PUSH1 0x0 DUP1 REVERT JUMPDEST POP CALLER PUSH1 0x0 PUSH20 0xFFFFFFFFFFFFFFFFFFFFFFFFFFFFFFFFFFFFFFFF AND DUP2 PUSH20 0xFFFFFFFFFFFFFFFFFFFFFFFFFFFFFFFFFFFFFFFF AND SUB PUSH2 0x1D8 JUMPI PUSH1 0x0 PUSH1 0x40 MLOAD PUSH32 0x1E4FBDF700000000000000000000000000000000000000000000000000000000 DUP2 MSTORE PUSH1 0x4 ADD PUSH2 0x1CF SWAP2 SWAP1 PUSH2 0x2F2 JUMP JUMPDEST PUSH1 0x40 MLOAD DUP1 SWAP2 SUB SWAP1 REVERT JUMPDEST PUSH2 0x1E7 DUP2 PUSH2 0x1ED PUSH1 0x20 SHL PUSH1 0x20 SHR JUMP JUMPDEST POP PUSH2 0x30D JUMP JUMPDEST PUSH1 0x0 DUP1 PUSH1 0x0 SWAP1 SLOAD SWAP1 PUSH2 0x100 EXP SWAP1 DIV PUSH20 0xFFFFFFFFFFFFFFFFFFFFFFFFFFFFFFFFFFFFFFFF AND SWAP1 POP DUP2 PUSH1 0x0 DUP1 PUSH2 0x100 EXP DUP2 SLOAD DUP2 PUSH20 0xFFFFFFFFFFFFFFFFFFFFFFFFFFFFFFFFFFFFFFFF MUL NOT AND SWAP1 DUP4 PUSH20 0xFFFFFFFFFFFFFFFFFFFFFFFFFFFFFFFFFFFFFFFF AND MUL OR SWAP1 SSTORE POP DUP2 PUSH20 0xFFFFFFFFFFFFFFFFFFFFFFFFFFFFFFFFFFFFFFFF AND DUP2 PUSH20 0xFFFFFFFFFFFFFFFFFFFFFFFFFFFFFFFFFFFFFFFF AND PUSH32 0x8BE0079C531659141344CD1FD0A4F28419497F9722A3DAAFE3B4186F6B6457E0 PUSH1 0x40 MLOAD PUSH1 0x40 MLOAD DUP1 SWAP2 SUB SWAP1 LOG3 POP POP JUMP JUMPDEST PUSH1 0x0 PUSH20 0xFFFFFFFFFFFFFFFFFFFFFFFFFFFFFFFFFFFFFFFF DUP3 AND SWAP1 POP SWAP2 SWAP1 POP JUMP JUMPDEST PUSH1 0x0 PUSH2 0x2DC DUP3 PUSH2 0x2B1 JUMP JUMPDEST SWAP1 POP SWAP2 SWAP1 POP JUMP JUMPDEST PUSH2 0x2EC DUP2 PUSH2 0x2D1 JUMP JUMPDEST DUP3 MSTORE POP POP JUMP JUMPDEST PUSH1 0x0 PUSH1 0x20 DUP3 ADD SWAP1 POP PUSH2 0x307 PUSH1 0x0 DUP4 ADD DUP5 PUSH2 0x2E3 JUMP JUMPDEST SWAP3 SWAP2 POP POP JUMP JUMPDEST PUSH2 0x2CD1 DUP1 PUSH2 0x31C PUSH1 0x0 CODECOPY PUSH1 0x0 RETURN INVALID PUSH1 0x80 PUSH1 0x40 MSTORE CALLVALUE DUP1 ISZERO PUSH2 0x10 JUMPI PUSH1 0x0 DUP1 REVERT JUMPDEST POP PUSH1 0x4 CALLDATASIZE LT PUSH2 0x88 JUMPI PUSH1 0x0 CALLDATALOAD PUSH1 0xE0 SHR DUP1 PUSH4 0xC31C9C07 GT PUSH2 0x5B JUMPI DUP1 PUSH4 0xC31C9C07 EQ PUSH2 0x103 JUMPI DUP1 PUSH4 0xC45A0155 EQ PUSH2 0x121 JUMPI DUP1 PUSH4 0xC6BBD5A7 EQ PUSH2 0x13F JUMPI DUP1 PUSH4 0xF2FDE38B EQ PUSH2 0x15D JUMPI PUSH2 0x88 JUMP JUMPDEST DUP1 PUSH4 0x715018A6 EQ PUSH2 0x8D JUMPI DUP1 PUSH4 0x791B98BC EQ PUSH2 0x97 JUMPI DUP1 PUSH4 0x8DA5CB5B EQ PUSH2 0xB5 JUMPI DUP1 PUSH4 0x8FF0BB99 EQ PUSH2 0xD3 JUMPI JUMPDEST PUSH1 0x0 DUP1 REVERT JUMPDEST PUSH2 0x95 PUSH2 0x179 JUMP JUMPDEST STOP JUMPDEST PUSH2 0x9F PUSH2 0x18D JUMP JUMPDEST PUSH1 0x40 MLOAD PUSH2 0xAC SWAP2 SWAP1 PUSH2 0x82A JUMP JUMPDEST PUSH1 0x40 MLOAD DUP1 SWAP2 SUB SWAP1 RETURN JUMPDEST PUSH2 0xBD PUSH2 0x1B3 JUMP JUMPDEST PUSH1 0x40 MLOAD PUSH2 0xCA SWAP2 SWAP1 PUSH2 0x866 JUMP JUMPDEST PUSH1 0x40 MLOAD DUP1 SWAP2 SUB SWAP1 RETURN JUMPDEST PUSH2 0xED PUSH1 0x4 DUP1 CALLDATASIZE SUB DUP2 ADD SWAP1 PUSH2 0xE8 SWAP2 SWAP1 PUSH2 0xA3D JUMP JUMPDEST PUSH2 0x1DC JUMP JUMPDEST PUSH1 0x40 MLOAD PUSH2 0xFA SWAP2 SWAP1 PUSH2 0x866 JUMP JUMPDEST PUSH1 0x40 MLOAD DUP1 SWAP2 SUB SWAP1 RETURN JUMPDEST PUSH2 0x10B PUSH2 0x553 JUMP JUMPDEST PUSH1 0x40 MLOAD PUSH2 0x118 SWAP2 SWAP1 PUSH2 0xAFD JUMP JUMPDEST PUSH1 0x40 MLOAD DUP1 SWAP2 SUB SWAP1 RETURN JUMPDEST PUSH2 0x129 PUSH2 0x579 JUMP JUMPDEST PUSH1 0x40 MLOAD PUSH2 0x136 SWAP2 SWAP1 PUSH2 0xB39 JUMP JUMPDEST PUSH1 0x40 MLOAD DUP1 SWAP2 SUB SWAP1 RETURN JUMPDEST PUSH2 0x147 PUSH2 0x59F JUMP JUMPDEST PUSH1 0x40 MLOAD PUSH2 0x154 SWAP2 SWAP1 PUSH2 0xB75 JUMP JUMPDEST PUSH1 0x40 MLOAD DUP1 SWAP2 SUB SWAP1 RETURN JUMPDEST PUSH2 0x177 PUSH1 0x4 DUP1 CALLDATASIZE SUB DUP2 ADD SWAP1 PUSH2 0x172 SWAP2 SWAP1 PUSH2 0xB90 JUMP JUMPDEST PUSH2 0x5C5 JUMP JUMPDEST STOP JUMPDEST PUSH2 0x181 PUSH2 0x64B JUMP JUMPDEST PUSH2 0x18B PUSH1 0x0 PUSH2 0x6D2 JUMP JUMPDEST JUMP JUMPDEST PUSH1 0x2 PUSH1 0x0 SWAP1 SLOAD SWAP1 PUSH2 0x100 EXP SWAP1 DIV PUSH20 0xFFFFFFFFFFFFFFFFFFFFFFFFFFFFFFFFFFFFFFFF AND DUP2 JUMP JUMPDEST PUSH1 0x0 DUP1 PUSH1 0x0 SWAP1 SLOAD SWAP1 PUSH2 0x100 EXP SWAP1 DIV PUSH20 0xFFFFFFFFFFFFFFFFFFFFFFFFFFFFFFFFFFFFFFFF AND SWAP1 POP SWAP1 JUMP JUMPDEST PUSH1 0x0 DUP1 DUP6 DUP6 DUP6 PUSH1 0x40 MLOAD PUSH2 0x1EE SWAP1 PUSH2 0x79E JUMP JUMPDEST PUSH2 0x1FA SWAP4 SWAP3 SWAP2 SWAP1 PUSH2 0xC4B JUMP JUMPDEST PUSH1 0x40 MLOAD DUP1 SWAP2 SUB SWAP1 PUSH1 0x0 CREATE DUP1 ISZERO DUP1 ISZERO PUSH2 0x216 JUMPI RETURNDATASIZE PUSH1 0x0 DUP1 RETURNDATACOPY RETURNDATASIZE PUSH1 0x0 REVERT JUMPDEST POP SWAP1 POP DUP1 PUSH20 0xFFFFFFFFFFFFFFFFFFFFFFFFFFFFFFFFFFFFFFFF AND PUSH4 0xF2FDE38B CALLER PUSH1 0x40 MLOAD DUP3 PUSH4 0xFFFFFFFF AND PUSH1 0xE0 SHL DUP2 MSTORE PUSH1 0x4 ADD PUSH2 0x252 SWAP2 SWAP1 PUSH2 0x866 JUMP JUMPDEST PUSH1 0x0 PUSH1 0x40 MLOAD DUP1 DUP4 SUB DUP2 PUSH1 0x0 DUP8 DUP1 EXTCODESIZE ISZERO DUP1 ISZERO PUSH2 0x26C JUMPI PUSH1 0x0 DUP1 REVERT JUMPDEST POP GAS CALL ISZERO DUP1 ISZERO PUSH2 0x280 JUMPI RETURNDATASIZE PUSH1 0x0 DUP1 RETURNDATACOPY RETURNDATASIZE PUSH1 0x0 REVERT JUMPDEST POP POP POP POP PUSH1 0x0 PUSH1 0x1 PUSH1 0x0 SWAP1 SLOAD SWAP1 PUSH2 0x100 EXP SWAP1 DIV PUSH20 0xFFFFFFFFFFFFFFFFFFFFFFFFFFFFFFFFFFFFFFFF AND PUSH20 0xFFFFFFFFFFFFFFFFFFFFFFFFFFFFFFFFFFFFFFFF AND PUSH4 0x1698EE82 DUP4 DUP7 PUSH2 0xBB8 PUSH1 0x40 MLOAD DUP5 PUSH4 0xFFFFFFFF AND PUSH1 0xE0 SHL DUP2 MSTORE PUSH1 0x4 ADD PUSH2 0x2E7 SWAP4 SWAP3 SWAP2 SWAP1 PUSH2 0xCAE JUMP JUMPDEST PUSH1 0x20 PUSH1 0x40 MLOAD DUP1 DUP4 SUB DUP2 DUP7 GAS STATICCALL ISZERO DUP1 ISZERO PUSH2 0x304 JUMPI RETURNDATASIZE PUSH1 0x0 DUP1 RETURNDATACOPY RETURNDATASIZE PUSH1 0x0 REVERT JUMPDEST POP POP POP POP PUSH1 0x40 MLOAD RETURNDATASIZE PUSH1 0x1F NOT PUSH1 0x1F DUP3 ADD AND DUP3 ADD DUP1 PUSH1 0x40 MSTORE POP DUP2 ADD SWAP1 PUSH2 0x328 SWAP2 SWAP1 PUSH2 0xCFA JUMP JUMPDEST SWAP1 POP PUSH1 0x0 PUSH20 0xFFFFFFFFFFFFFFFFFFFFFFFFFFFFFFFFFFFFFFFF AND DUP2 PUSH20 0xFFFFFFFFFFFFFFFFFFFFFFFFFFFFFFFFFFFFFFFF AND SUB PUSH2 0x405 JUMPI PUSH1 0x1 PUSH1 0x0 SWAP1 SLOAD SWAP1 PUSH2 0x100 EXP SWAP1 DIV PUSH20 0xFFFFFFFFFFFFFFFFFFFFFFFFFFFFFFFFFFFFFFFF AND PUSH20 0xFFFFFFFFFFFFFFFFFFFFFFFFFFFFFFFFFFFFFFFF AND PUSH4 0xA1671295 DUP4 DUP7 PUSH2 0xBB8 PUSH1 0x40 MLOAD DUP5 PUSH4 0xFFFFFFFF AND PUSH1 0xE0 SHL DUP2 MSTORE PUSH1 0x4 ADD PUSH2 0x3BF SWAP4 SWAP3 SWAP2 SWAP1 PUSH2 0xCAE JUMP JUMPDEST PUSH1 0x20 PUSH1 0x40 MLOAD DUP1 DUP4 SUB DUP2 PUSH1 0x0 DUP8 GAS CALL ISZERO DUP1 ISZERO PUSH2 0x3DE JUMPI RETURNDATASIZE PUSH1 0x0 DUP1 RETURNDATACOPY RETURNDATASIZE PUSH1 0x0 REVERT JUMPDEST POP POP POP POP PUSH1 0x40 MLOAD RETURNDATASIZE PUSH1 0x1F NOT PUSH1 0x1F DUP3 ADD AND DUP3 ADD DUP1 PUSH1 0x40 MSTORE POP DUP2 ADD SWAP1 PUSH2 0x402 SWAP2 SWAP1 PUSH2 0xCFA JUMP JUMPDEST SWAP1 POP JUMPDEST PUSH1 0x2 PUSH1 0x0 SWAP1 SLOAD SWAP1 PUSH2 0x100 EXP SWAP1 DIV PUSH20 0xFFFFFFFFFFFFFFFFFFFFFFFFFFFFFFFFFFFFFFFF AND PUSH20 0xFFFFFFFFFFFFFFFFFFFFFFFFFFFFFFFFFFFFFFFF AND PUSH4 0x2D737113 DUP4 DUP7 PUSH2 0xBB8 PUSH32 0xFFFFFFFFFFFFFFFFFFFFFFFFFFFFFFFFFFFFFFFFFFFFFFFFFFFFFFFFFFFF15A0 PUSH2 0xEA60 PUSH9 0x3635C9ADC5DEA00000 DUP1 PUSH1 0x0 DUP1 CALLER PUSH2 0x12C TIMESTAMP PUSH2 0x489 SWAP2 SWAP1 PUSH2 0xD56 JUMP JUMPDEST PUSH1 0x40 MLOAD DUP13 PUSH4 0xFFFFFFFF AND PUSH1 0xE0 SHL DUP2 MSTORE PUSH1 0x4 ADD PUSH2 0x4AF SWAP12 SWAP11 SWAP10 SWAP9 SWAP8 SWAP7 SWAP6 SWAP5 SWAP4 SWAP3 SWAP2 SWAP1 PUSH2 0xE83 JUMP JUMPDEST PUSH1 0x80 PUSH1 0x40 MLOAD DUP1 DUP4 SUB DUP2 PUSH1 0x0 DUP8 GAS CALL ISZERO DUP1 ISZERO PUSH2 0x4CE JUMPI RETURNDATASIZE PUSH1 0x0 DUP1 RETURNDATACOPY RETURNDATASIZE PUSH1 0x0 REVERT JUMPDEST POP POP POP POP PUSH1 0x40 MLOAD RETURNDATASIZE PUSH1 0x1F NOT PUSH1 0x1F DUP3 ADD AND DUP3 ADD DUP1 PUSH1 0x40 MSTORE POP DUP2 ADD SWAP1 PUSH2 0x4F2 SWAP2 SWAP1 PUSH2 0xF8B JUMP JUMPDEST POP POP POP POP CALLER PUSH20 0xFFFFFFFFFFFFFFFFFFFFFFFFFFFFFFFFFFFFFFFF AND PUSH32 0x3A2480CE53A8C9229556C140C60039B8C13BCE2009773B802A638DEEC98EAE1F DUP4 DUP4 PUSH1 0x40 MLOAD PUSH2 0x53E SWAP3 SWAP2 SWAP1 PUSH2 0xFF2 JUMP JUMPDEST PUSH1 0x40 MLOAD DUP1 SWAP2 SUB SWAP1 LOG2 DUP2 SWAP3 POP POP POP SWAP5 SWAP4 POP POP POP POP JUMP JUMPDEST PUSH1 0x3 PUSH1 0x0 SWAP1 SLOAD SWAP1 PUSH2 0x100 EXP SWAP1 DIV PUSH20 0xFFFFFFFFFFFFFFFFFFFFFFFFFFFFFFFFFFFFFFFF AND DUP2 JUMP JUMPDEST PUSH1 0x1 PUSH1 0x0 SWAP1 SLOAD SWAP1 PUSH2 0x100 EXP SWAP1 DIV PUSH20 0xFFFFFFFFFFFFFFFFFFFFFFFFFFFFFFFFFFFFFFFF AND DUP2 JUMP JUMPDEST PUSH1 0x4 PUSH1 0x0 SWAP1 SLOAD SWAP1 PUSH2 0x100 EXP SWAP1 DIV PUSH20 0xFFFFFFFFFFFFFFFFFFFFFFFFFFFFFFFFFFFFFFFF AND DUP2 JUMP JUMPDEST PUSH2 0x5CD PUSH2 0x64B JUMP JUMPDEST PUSH1 0x0 PUSH20 0xFFFFFFFFFFFFFFFFFFFFFFFFFFFFFFFFFFFFFFFF AND DUP2 PUSH20 0xFFFFFFFFFFFFFFFFFFFFFFFFFFFFFFFFFFFFFFFF AND SUB PUSH2 0x63F JUMPI PUSH1 0x0 PUSH1 0x40 MLOAD PUSH32 0x1E4FBDF700000000000000000000000000000000000000000000000000000000 DUP2 MSTORE PUSH1 0x4 ADD PUSH2 0x636 SWAP2 SWAP1 PUSH2 0x866 JUMP JUMPDEST PUSH1 0x40 MLOAD DUP1 SWAP2 SUB SWAP1 REVERT JUMPDEST PUSH2 0x648 DUP2 PUSH2 0x6D2 JUMP JUMPDEST POP JUMP JUMPDEST PUSH2 0x653 PUSH2 0x796 JUMP JUMPDEST PUSH20 0xFFFFFFFFFFFFFFFFFFFFFFFFFFFFFFFFFFFFFFFF AND PUSH2 0x671 PUSH2 0x1B3 JUMP JUMPDEST PUSH20 0xFFFFFFFFFFFFFFFFFFFFFFFFFFFFFFFFFFFFFFFF AND EQ PUSH2 0x6D0 JUMPI PUSH2 0x694 PUSH2 0x796 JUMP JUMPDEST PUSH1 0x40 MLOAD PUSH32 0x118CDAA700000000000000000000000000000000000000000000000000000000 DUP2 MSTORE PUSH1 0x4 ADD PUSH2 0x6C7 SWAP2 SWAP1 PUSH2 0x866 JUMP JUMPDEST PUSH1 0x40 MLOAD DUP1 SWAP2 SUB SWAP1 REVERT JUMPDEST JUMP JUMPDEST PUSH1 0x0 DUP1 PUSH1 0x0 SWAP1 SLOAD SWAP1 PUSH2 0x100 EXP SWAP1 DIV PUSH20 0xFFFFFFFFFFFFFFFFFFFFFFFFFFFFFFFFFFFFFFFF AND SWAP1 POP DUP2 PUSH1 0x0 DUP1 PUSH2 0x100 EXP DUP2 SLOAD DUP2 PUSH20 0xFFFFFFFFFFFFFFFFFFFFFFFFFFFFFFFFFFFFFFFF MUL NOT AND SWAP1 DUP4 PUSH20 0xFFFFFFFFFFFFFFFFFFFFFFFFFFFFFFFFFFFFFFFF AND MUL OR SWAP1 SSTORE POP DUP2 PUSH20 0xFFFFFFFFFFFFFFFFFFFFFFFFFFFFFFFFFFFFFFFF AND DUP2 PUSH20 0xFFFFFFFFFFFFFFFFFFFFFFFFFFFFFFFFFFFFFFFF AND PUSH32 0x8BE0079C531659141344CD1FD0A4F28419497F9722A3DAAFE3B4186F6B6457E0 PUSH1 0x40 MLOAD PUSH1 0x40 MLOAD DUP1 SWAP2 SUB SWAP1 LOG3 POP POP JUMP JUMPDEST PUSH1 0x0 CALLER SWAP1 POP SWAP1 JUMP JUMPDEST PUSH2 0x1C80 DUP1 PUSH2 0x101C DUP4 CODECOPY ADD SWAP1 JUMP JUMPDEST PUSH1 0x0 PUSH20 0xFFFFFFFFFFFFFFFFFFFFFFFFFFFFFFFFFFFFFFFF DUP3 AND SWAP1 POP SWAP2 SWAP1 POP JUMP JUMPDEST PUSH1 0x0 DUP2 SWAP1 POP SWAP2 SWAP1 POP JUMP JUMPDEST PUSH1 0x0 PUSH2 0x7F0 PUSH2 0x7EB PUSH2 0x7E6 DUP5 PUSH2 0x7AB JUMP JUMPDEST PUSH2 0x7CB JUMP JUMPDEST PUSH2 0x7AB JUMP JUMPDEST SWAP1 POP SWAP2 SWAP1 POP JUMP JUMPDEST PUSH1 0x0 PUSH2 0x802 DUP3 PUSH2 0x7D5 JUMP JUMPDEST SWAP1 POP SWAP2 SWAP1 POP JUMP JUMPDEST PUSH1 0x0 PUSH2 0x814 DUP3 PUSH2 0x7F7 JUMP JUMPDEST SWAP1 POP SWAP2 SWAP1 POP JUMP JUMPDEST PUSH2 0x824 DUP2 PUSH2 0x809 JUMP JUMPDEST DUP3 MSTORE POP POP JUMP JUMPDEST PUSH1 0x0 PUSH1 0x20 DUP3 ADD SWAP1 POP PUSH2 0x83F PUSH1 0x0 DUP4 ADD DUP5 PUSH2 0x81B JUMP JUMPDEST SWAP3 SWAP2 POP POP JUMP JUMPDEST PUSH1 0x0 PUSH2 0x850 DUP3 PUSH2 0x7AB JUMP JUMPDEST SWAP1 POP SWAP2 SWAP1 POP JUMP JUMPDEST PUSH2 0x860 DUP2 PUSH2 0x845 JUMP JUMPDEST DUP3 MSTORE POP POP JUMP JUMPDEST PUSH1 0x0 PUSH1 0x20 DUP3 ADD SWAP1 POP PUSH2 0x87B PUSH1 0x0 DUP4 ADD DUP5 PUSH2 0x857 JUMP JUMPDEST SWAP3 SWAP2 POP POP JUMP JUMPDEST PUSH1 0x0 PUSH1 0x40 MLOAD SWAP1 POP SWAP1 JUMP JUMPDEST PUSH1 0x0 DUP1 REVERT JUMPDEST PUSH1 0x0 DUP1 REVERT JUMPDEST PUSH1 0x0 DUP1 REVERT JUMPDEST PUSH1 0x0 DUP1 REVERT JUMPDEST PUSH1 0x0 PUSH1 0x1F NOT PUSH1 0x1F DUP4 ADD AND SWAP1 POP SWAP2 SWAP1 POP JUMP JUMPDEST PUSH32 0x4E487B7100000000000000000000000000000000000000000000000000000000 PUSH1 0x0 MSTORE PUSH1 0x41 PUSH1 0x4 MSTORE PUSH1 0x24 PUSH1 0x0 REVERT JUMPDEST PUSH2 0x8E8 DUP3 PUSH2 0x89F JUMP JUMPDEST DUP2 ADD DUP2 DUP2 LT PUSH8 0xFFFFFFFFFFFFFFFF DUP3 GT OR ISZERO PUSH2 0x907 JUMPI PUSH2 0x906 PUSH2 0x8B0 JUMP JUMPDEST JUMPDEST DUP1 PUSH1 0x40 MSTORE POP POP POP JUMP JUMPDEST PUSH1 0x0 PUSH2 0x91A PUSH2 0x881 JUMP JUMPDEST SWAP1 POP PUSH2 0x926 DUP3 DUP3 PUSH2 0x8DF JUMP JUMPDEST SWAP2 SWAP1 POP JUMP JUMPDEST PUSH1 0x0 PUSH8 0xFFFFFFFFFFFFFFFF DUP3 GT ISZERO PUSH2 0x946 JUMPI PUSH2 0x945 PUSH2 0x8B0 JUMP JUMPDEST JUMPDEST PUSH2 0x94F DUP3 PUSH2 0x89F JUMP JUMPDEST SWAP1 POP PUSH1 0x20 DUP2 ADD SWAP1 POP SWAP2 SWAP1 POP JUMP JUMPDEST DUP3 DUP2 DUP4 CALLDATACOPY PUSH1 0x0 DUP4 DUP4 ADD MSTORE POP POP POP JUMP JUMPDEST PUSH1 0x0 PUSH2 0x97E PUSH2 0x979 DUP5 PUSH2 0x92B JUMP JUMPDEST PUSH2 0x910 JUMP JUMPDEST SWAP1 POP DUP3 DUP2 MSTORE PUSH1 0x20 DUP2 ADD DUP5 DUP5 DUP5 ADD GT ISZERO PUSH2 0x99A JUMPI PUSH2 0x999 PUSH2 0x89A JUMP JUMPDEST JUMPDEST PUSH2 0x9A5 DUP5 DUP3 DUP6 PUSH2 0x95C JUMP JUMPDEST POP SWAP4 SWAP3 POP POP POP JUMP JUMPDEST PUSH1 0x0 DUP3 PUSH1 0x1F DUP4 ADD SLT PUSH2 0x9C2 JUMPI PUSH2 0x9C1 PUSH2 0x895 JUMP JUMPDEST JUMPDEST DUP2 CALLDATALOAD PUSH2 0x9D2 DUP5 DUP3 PUSH1 0x20 DUP7 ADD PUSH2 0x96B JUMP JUMPDEST SWAP2 POP POP SWAP3 SWAP2 POP POP JUMP JUMPDEST PUSH1 0x0 DUP2 SWAP1 POP SWAP2 SWAP1 POP JUMP JUMPDEST PUSH2 0x9EE DUP2 PUSH2 0x9DB JUMP JUMPDEST DUP2 EQ PUSH2 0x9F9 JUMPI PUSH1 0x0 DUP1 REVERT JUMPDEST POP JUMP JUMPDEST PUSH1 0x0 DUP2 CALLDATALOAD SWAP1 POP PUSH2 0xA0B DUP2 PUSH2 0x9E5 JUMP JUMPDEST SWAP3 SWAP2 POP POP JUMP JUMPDEST PUSH2 0xA1A DUP2 PUSH2 0x845 JUMP JUMPDEST DUP2 EQ PUSH2 0xA25 JUMPI PUSH1 0x0 DUP1 REVERT JUMPDEST POP JUMP JUMPDEST PUSH1 0x0 DUP2 CALLDATALOAD SWAP1 POP PUSH2 0xA37 DUP2 PUSH2 0xA11 JUMP JUMPDEST SWAP3 SWAP2 POP POP JUMP JUMPDEST PUSH1 0x0 DUP1 PUSH1 0x0 DUP1 PUSH1 0x80 DUP6 DUP8 SUB SLT ISZERO PUSH2 0xA57 JUMPI PUSH2 0xA56 PUSH2 0x88B JUMP JUMPDEST JUMPDEST PUSH1 0x0 DUP6 ADD CALLDATALOAD PUSH8 0xFFFFFFFFFFFFFFFF DUP2 GT ISZERO PUSH2 0xA75 JUMPI PUSH2 0xA74 PUSH2 0x890 JUMP JUMPDEST JUMPDEST PUSH2 0xA81 DUP8 DUP3 DUP9 ADD PUSH2 0x9AD JUMP JUMPDEST SWAP5 POP POP PUSH1 0x20 DUP6 ADD CALLDATALOAD PUSH8 0xFFFFFFFFFFFFFFFF DUP2 GT ISZERO PUSH2 0xAA2 JUMPI PUSH2 0xAA1 PUSH2 0x890 JUMP JUMPDEST JUMPDEST PUSH2 0xAAE DUP8 DUP3 DUP9 ADD PUSH2 0x9AD JUMP JUMPDEST SWAP4 POP POP PUSH1 0x40 PUSH2 0xABF DUP8 DUP3 DUP9 ADD PUSH2 0x9FC JUMP JUMPDEST SWAP3 POP POP PUSH1 0x60 PUSH2 0xAD0 DUP8 DUP3 DUP9 ADD PUSH2 0xA28 JUMP JUMPDEST SWAP2 POP POP SWAP3 SWAP6 SWAP2 SWAP5 POP SWAP3 POP JUMP JUMPDEST PUSH1 0x0 PUSH2 0xAE7 DUP3 PUSH2 0x7F7 JUMP JUMPDEST SWAP1 POP SWAP2 SWAP1 POP JUMP JUMPDEST PUSH2 0xAF7 DUP2 PUSH2 0xADC JUMP JUMPDEST DUP3 MSTORE POP POP JUMP JUMPDEST PUSH1 0x0 PUSH1 0x20 DUP3 ADD SWAP1 POP PUSH2 0xB12 PUSH1 0x0 DUP4 ADD DUP5 PUSH2 0xAEE JUMP JUMPDEST SWAP3 SWAP2 POP POP JUMP JUMPDEST PUSH1 0x0 PUSH2 0xB23 DUP3 PUSH2 0x7F7 JUMP JUMPDEST SWAP1 POP SWAP2 SWAP1 POP JUMP JUMPDEST PUSH2 0xB33 DUP2 PUSH2 0xB18 JUMP JUMPDEST DUP3 MSTORE POP POP JUMP JUMPDEST PUSH1 0x0 PUSH1 0x20 DUP3 ADD SWAP1 POP PUSH2 0xB4E PUSH1 0x0 DUP4 ADD DUP5 PUSH2 0xB2A JUMP JUMPDEST SWAP3 SWAP2 POP POP JUMP JUMPDEST PUSH1 0x0 PUSH2 0xB5F DUP3 PUSH2 0x7F7 JUMP JUMPDEST SWAP1 POP SWAP2 SWAP1 POP JUMP JUMPDEST PUSH2 0xB6F DUP2 PUSH2 0xB54 JUMP JUMPDEST DUP3 MSTORE POP POP JUMP JUMPDEST PUSH1 0x0 PUSH1 0x20 DUP3 ADD SWAP1 POP PUSH2 0xB8A PUSH1 0x0 DUP4 ADD DUP5 PUSH2 0xB66 JUMP JUMPDEST SWAP3 SWAP2 POP POP JUMP JUMPDEST PUSH1 0x0 PUSH1 0x20 DUP3 DUP5 SUB SLT ISZERO PUSH2 0xBA6 JUMPI PUSH2 0xBA5 PUSH2 0x88B JUMP JUMPDEST JUMPDEST PUSH1 0x0 PUSH2 0xBB4 DUP5 DUP3 DUP6 ADD PUSH2 0xA28 JUMP JUMPDEST SWAP2 POP POP SWAP3 SWAP2 POP POP JUMP JUMPDEST PUSH1 0x0 DUP2 MLOAD SWAP1 POP SWAP2 SWAP1 POP JUMP JUMPDEST PUSH1 0x0 DUP3 DUP3 MSTORE PUSH1 0x20 DUP3 ADD SWAP1 POP SWAP3 SWAP2 POP POP JUMP JUMPDEST PUSH1 0x0 JUMPDEST DUP4 DUP2 LT ISZERO PUSH2 0xBF7 JUMPI DUP1 DUP3 ADD MLOAD DUP2 DUP5 ADD MSTORE PUSH1 0x20 DUP2 ADD SWAP1 POP PUSH2 0xBDC JUMP JUMPDEST PUSH1 0x0 DUP5 DUP5 ADD MSTORE POP POP POP POP JUMP JUMPDEST PUSH1 0x0 PUSH2 0xC0E DUP3 PUSH2 0xBBD JUMP JUMPDEST PUSH2 0xC18 DUP2 DUP6 PUSH2 0xBC8 JUMP JUMPDEST SWAP4 POP PUSH2 0xC28 DUP2 DUP6 PUSH1 0x20 DUP7 ADD PUSH2 0xBD9 JUMP JUMPDEST PUSH2 0xC31 DUP2 PUSH2 0x89F JUMP JUMPDEST DUP5 ADD SWAP2 POP POP SWAP3 SWAP2 POP POP JUMP JUMPDEST PUSH2 0xC45 DUP2 PUSH2 0x9DB JUMP JUMPDEST DUP3 MSTORE POP POP JUMP JUMPDEST PUSH1 0x0 PUSH1 0x60 DUP3 ADD SWAP1 POP DUP2 DUP2 SUB PUSH1 0x0 DUP4 ADD MSTORE PUSH2 0xC65 DUP2 DUP7 PUSH2 0xC03 JUMP JUMPDEST SWAP1 POP DUP2 DUP2 SUB PUSH1 0x20 DUP4 ADD MSTORE PUSH2 0xC79 DUP2 DUP6 PUSH2 0xC03 JUMP JUMPDEST SWAP1 POP PUSH2 0xC88 PUSH1 0x40 DUP4 ADD DUP5 PUSH2 0xC3C JUMP JUMPDEST SWAP5 SWAP4 POP POP POP POP JUMP JUMPDEST PUSH1 0x0 PUSH3 0xFFFFFF DUP3 AND SWAP1 POP SWAP2 SWAP1 POP JUMP JUMPDEST PUSH2 0xCA8 DUP2 PUSH2 0xC90 JUMP JUMPDEST DUP3 MSTORE POP POP JUMP JUMPDEST PUSH1 0x0 PUSH1 0x60 DUP3 ADD SWAP1 POP PUSH2 0xCC3 PUSH1 0x0 DUP4 ADD DUP7 PUSH2 0x857 JUMP JUMPDEST PUSH2 0xCD0 PUSH1 0x20 DUP4 ADD DUP6 PUSH2 0x857 JUMP JUMPDEST PUSH2 0xCDD PUSH1 0x40 DUP4 ADD DUP5 PUSH2 0xC9F JUMP JUMPDEST SWAP5 SWAP4 POP POP POP POP JUMP JUMPDEST PUSH1 0x0 DUP2 MLOAD SWAP1 POP PUSH2 0xCF4 DUP2 PUSH2 0xA11 JUMP JUMPDEST SWAP3 SWAP2 POP POP JUMP JUMPDEST PUSH1 0x0 PUSH1 0x20 DUP3 DUP5 SUB SLT ISZERO PUSH2 0xD10 JUMPI PUSH2 0xD0F PUSH2 0x88B JUMP JUMPDEST JUMPDEST PUSH1 0x0 PUSH2 0xD1E DUP5 DUP3 DUP6 ADD PUSH2 0xCE5 JUMP JUMPDEST SWAP2 POP POP SWAP3 SWAP2 POP POP JUMP JUMPDEST PUSH32 0x4E487B7100000000000000000000000000000000000000000000000000000000 PUSH1 0x0 MSTORE PUSH1 0x11 PUSH1 0x4 MSTORE PUSH1 0x24 PUSH1 0x0 REVERT JUMPDEST PUSH1 0x0 PUSH2 0xD61 DUP3 PUSH2 0x9DB JUMP JUMPDEST SWAP2 POP PUSH2 0xD6C DUP4 PUSH2 0x9DB JUMP JUMPDEST SWAP3 POP DUP3 DUP3 ADD SWAP1 POP DUP1 DUP3 GT ISZERO PUSH2 0xD84 JUMPI PUSH2 0xD83 PUSH2 0xD27 JUMP JUMPDEST JUMPDEST SWAP3 SWAP2 POP POP JUMP JUMPDEST PUSH1 0x0 DUP2 SWAP1 POP SWAP2 SWAP1 POP JUMP JUMPDEST PUSH1 0x0 DUP2 PUSH1 0x2 SIGNEXTEND SWAP1 POP SWAP2 SWAP1 POP JUMP JUMPDEST PUSH1 0x0 PUSH2 0xDBC PUSH2 0xDB7 PUSH2 0xDB2 DUP5 PUSH2 0xD8A JUMP JUMPDEST PUSH2 0x7CB JUMP JUMPDEST PUSH2 0xD94 JUMP JUMPDEST SWAP1 POP SWAP2 SWAP1 POP JUMP JUMPDEST PUSH2 0xDCC DUP2 PUSH2 0xDA1 JUMP JUMPDEST DUP3 MSTORE POP POP JUMP JUMPDEST PUSH1 0x0 DUP2 SWAP1 POP SWAP2 SWAP1 POP JUMP JUMPDEST PUSH1 0x0 PUSH2 0xDF7 PUSH2 0xDF2 PUSH2 0xDED DUP5 PUSH2 0xDD2 JUMP JUMPDEST PUSH2 0x7CB JUMP JUMPDEST PUSH2 0xD94 JUMP JUMPDEST SWAP1 POP SWAP2 SWAP1 POP JUMP JUMPDEST PUSH2 0xE07 DUP2 PUSH2 0xDDC JUMP JUMPDEST DUP3 MSTORE POP POP JUMP JUMPDEST PUSH1 0x0 DUP2 SWAP1 POP SWAP2 SWAP1 POP JUMP JUMPDEST PUSH1 0x0 PUSH2 0xE32 PUSH2 0xE2D PUSH2 0xE28 DUP5 PUSH2 0xE0D JUMP JUMPDEST PUSH2 0x7CB JUMP JUMPDEST PUSH2 0x9DB JUMP JUMPDEST SWAP1 POP SWAP2 SWAP1 POP JUMP JUMPDEST PUSH2 0xE42 DUP2 PUSH2 0xE17 JUMP JUMPDEST DUP3 MSTORE POP POP JUMP JUMPDEST PUSH1 0x0 DUP2 SWAP1 POP SWAP2 SWAP1 POP JUMP JUMPDEST PUSH1 0x0 PUSH2 0xE6D PUSH2 0xE68 PUSH2 0xE63 DUP5 PUSH2 0xE48 JUMP JUMPDEST PUSH2 0x7CB JUMP JUMPDEST PUSH2 0x9DB JUMP JUMPDEST SWAP1 POP SWAP2 SWAP1 POP JUMP JUMPDEST PUSH2 0xE7D DUP2 PUSH2 0xE52 JUMP JUMPDEST DUP3 MSTORE POP POP JUMP JUMPDEST PUSH1 0x0 PUSH2 0x160 DUP3 ADD SWAP1 POP PUSH2 0xE99 PUSH1 0x0 DUP4 ADD DUP15 PUSH2 0x857 JUMP JUMPDEST PUSH2 0xEA6 PUSH1 0x20 DUP4 ADD DUP14 PUSH2 0x857 JUMP JUMPDEST PUSH2 0xEB3 PUSH1 0x40 DUP4 ADD DUP13 PUSH2 0xC9F JUMP JUMPDEST PUSH2 0xEC0 PUSH1 0x60 DUP4 ADD DUP12 PUSH2 0xDC3 JUMP JUMPDEST PUSH2 0xECD PUSH1 0x80 DUP4 ADD DUP11 PUSH2 0xDFE JUMP JUMPDEST PUSH2 0xEDA PUSH1 0xA0 DUP4 ADD DUP10 PUSH2 0xE39 JUMP JUMPDEST PUSH2 0xEE7 PUSH1 0xC0 DUP4 ADD DUP9 PUSH2 0xE39 JUMP JUMPDEST PUSH2 0xEF4 PUSH1 0xE0 DUP4 ADD DUP8 PUSH2 0xE74 JUMP JUMPDEST PUSH2 0xF02 PUSH2 0x100 DUP4 ADD DUP7 PUSH2 0xE74 JUMP JUMPDEST PUSH2 0xF10 PUSH2 0x120 DUP4 ADD DUP6 PUSH2 0x857 JUMP JUMPDEST PUSH2 0xF1E PUSH2 0x140 DUP4 ADD DUP5 PUSH2 0xC3C JUMP JUMPDEST SWAP13 SWAP12 POP POP POP POP POP POP POP POP POP POP POP POP JUMP JUMPDEST PUSH1 0x0 DUP2 MLOAD SWAP1 POP PUSH2 0xF3D DUP2 PUSH2 0x9E5 JUMP JUMPDEST SWAP3 SWAP2 POP POP JUMP JUMPDEST PUSH1 0x0 PUSH16 0xFFFFFFFFFFFFFFFFFFFFFFFFFFFFFFFF DUP3 AND SWAP1 POP SWAP2 SWAP1 POP JUMP JUMPDEST PUSH2 0xF68 DUP2 PUSH2 0xF43 JUMP JUMPDEST DUP2 EQ PUSH2 0xF73 JUMPI PUSH1 0x0 DUP1 REVERT JUMPDEST POP JUMP JUMPDEST PUSH1 0x0 DUP2 MLOAD SWAP1 POP PUSH2 0xF85 DUP2 PUSH2 0xF5F JUMP JUMPDEST SWAP3 SWAP2 POP POP JUMP JUMPDEST PUSH1 0x0 DUP1 PUSH1 0x0 DUP1 PUSH1 0x80 DUP6 DUP8 SUB SLT ISZERO PUSH2 0xFA5 JUMPI PUSH2 0xFA4 PUSH2 0x88B JUMP JUMPDEST JUMPDEST PUSH1 0x0 PUSH2 0xFB3 DUP8 DUP3 DUP9 ADD PUSH2 0xF2E JUMP JUMPDEST SWAP5 POP POP PUSH1 0x20 PUSH2 0xFC4 DUP8 DUP3 DUP9 ADD PUSH2 0xF76 JUMP JUMPDEST SWAP4 POP POP PUSH1 0x40 PUSH2 0xFD5 DUP8 DUP3 DUP9 ADD PUSH2 0xF2E JUMP JUMPDEST SWAP3 POP POP PUSH1 0x60 PUSH2 0xFE6 DUP8 DUP3 DUP9 ADD PUSH2 0xF2E JUMP JUMPDEST SWAP2 POP POP SWAP3 SWAP6 SWAP2 SWAP5 POP SWAP3 POP JUMP JUMPDEST PUSH1 0x0 PUSH1 0x40 DUP3 ADD SWAP1 POP PUSH2 0x1007 PUSH1 0x0 DUP4 ADD DUP6 PUSH2 0x857 JUMP JUMPDEST PUSH2 0x1014 PUSH1 0x20 DUP4 ADD DUP5 PUSH2 0x857 JUMP JUMPDEST SWAP4 SWAP3 POP POP POP JUMP INVALID PUSH1 0x80 PUSH1 0x40 MSTORE CALLVALUE DUP1 ISZERO PUSH2 0x10 JUMPI PUSH1 0x0 DUP1 REVERT JUMPDEST POP PUSH1 0x40 MLOAD PUSH2 0x1C80 CODESIZE SUB DUP1 PUSH2 0x1C80 DUP4 CODECOPY DUP2 DUP2 ADD PUSH1 0x40 MSTORE DUP2 ADD SWAP1 PUSH2 0x32 SWAP2 SWAP1 PUSH2 0x60F JUMP JUMPDEST CALLER DUP4 DUP4 DUP2 PUSH1 0x3 SWAP1 DUP2 PUSH2 0x44 SWAP2 SWAP1 PUSH2 0x8B1 JUMP JUMPDEST POP DUP1 PUSH1 0x4 SWAP1 DUP2 PUSH2 0x54 SWAP2 SWAP1 PUSH2 0x8B1 JUMP JUMPDEST POP POP POP PUSH1 0x0 PUSH20 0xFFFFFFFFFFFFFFFFFFFFFFFFFFFFFFFFFFFFFFFF AND DUP2 PUSH20 0xFFFFFFFFFFFFFFFFFFFFFFFFFFFFFFFFFFFFFFFF AND SUB PUSH2 0xC9 JUMPI PUSH1 0x0 PUSH1 0x40 MLOAD PUSH32 0x1E4FBDF700000000000000000000000000000000000000000000000000000000 DUP2 MSTORE PUSH1 0x4 ADD PUSH2 0xC0 SWAP2 SWAP1 PUSH2 0x9C4 JUMP JUMPDEST PUSH1 0x40 MLOAD DUP1 SWAP2 SUB SWAP1 REVERT JUMPDEST PUSH2 0xD8 DUP2 PUSH2 0xF1 PUSH1 0x20 SHL PUSH1 0x20 SHR JUMP JUMPDEST POP PUSH2 0xE9 CALLER DUP3 PUSH2 0x1B7 PUSH1 0x20 SHL PUSH1 0x20 SHR JUMP JUMPDEST POP POP POP PUSH2 0xAA3 JUMP JUMPDEST PUSH1 0x0 PUSH1 0x5 PUSH1 0x0 SWAP1 SLOAD SWAP1 PUSH2 0x100 EXP SWAP1 DIV PUSH20 0xFFFFFFFFFFFFFFFFFFFFFFFFFFFFFFFFFFFFFFFF AND SWAP1 POP DUP2 PUSH1 0x5 PUSH1 0x0 PUSH2 0x100 EXP DUP2 SLOAD DUP2 PUSH20 0xFFFFFFFFFFFFFFFFFFFFFFFFFFFFFFFFFFFFFFFF MUL NOT AND SWAP1 DUP4 PUSH20 0xFFFFFFFFFFFFFFFFFFFFFFFFFFFFFFFFFFFFFFFF AND MUL OR SWAP1 SSTORE POP DUP2 PUSH20 0xFFFFFFFFFFFFFFFFFFFFFFFFFFFFFFFFFFFFFFFF AND DUP2 PUSH20 0xFFFFFFFFFFFFFFFFFFFFFFFFFFFFFFFFFFFFFFFF AND PUSH32 0x8BE0079C531659141344CD1FD0A4F28419497F9722A3DAAFE3B4186F6B6457E0 PUSH1 0x40 MLOAD PUSH1 0x40 MLOAD DUP1 SWAP2 SUB SWAP1 LOG3 POP POP JUMP JUMPDEST PUSH1 0x0 PUSH20 0xFFFFFFFFFFFFFFFFFFFFFFFFFFFFFFFFFFFFFFFF AND DUP3 PUSH20 0xFFFFFFFFFFFFFFFFFFFFFFFFFFFFFFFFFFFFFFFF AND SUB PUSH2 0x229 JUMPI PUSH1 0x0 PUSH1 0x40 MLOAD PUSH32 0xEC442F0500000000000000000000000000000000000000000000000000000000 DUP2 MSTORE PUSH1 0x4 ADD PUSH2 0x220 SWAP2 SWAP1 PUSH2 0x9C4 JUMP JUMPDEST PUSH1 0x40 MLOAD DUP1 SWAP2 SUB SWAP1 REVERT JUMPDEST PUSH2 0x23B PUSH1 0x0 DUP4 DUP4 PUSH2 0x23F PUSH1 0x20 SHL PUSH1 0x20 SHR JUMP JUMPDEST POP POP JUMP JUMPDEST PUSH1 0x0 PUSH20 0xFFFFFFFFFFFFFFFFFFFFFFFFFFFFFFFFFFFFFFFF AND DUP4 PUSH20 0xFFFFFFFFFFFFFFFFFFFFFFFFFFFFFFFFFFFFFFFF AND SUB PUSH2 0x291 JUMPI DUP1 PUSH1 0x2 PUSH1 0x0 DUP3 DUP3 SLOAD PUSH2 0x285 SWAP2 SWAP1 PUSH2 0xA0E JUMP JUMPDEST SWAP3 POP POP DUP2 SWAP1 SSTORE POP PUSH2 0x364 JUMP JUMPDEST PUSH1 0x0 DUP1 PUSH1 0x0 DUP6 PUSH20 0xFFFFFFFFFFFFFFFFFFFFFFFFFFFFFFFFFFFFFFFF AND PUSH20 0xFFFFFFFFFFFFFFFFFFFFFFFFFFFFFFFFFFFFFFFF AND DUP2 MSTORE PUSH1 0x20 ADD SWAP1 DUP2 MSTORE PUSH1 0x20 ADD PUSH1 0x0 KECCAK256 SLOAD SWAP1 POP DUP2 DUP2 LT ISZERO PUSH2 0x31D JUMPI DUP4 DUP2 DUP4 PUSH1 0x40 MLOAD PUSH32 0xE450D38C00000000000000000000000000000000000000000000000000000000 DUP2 MSTORE PUSH1 0x4 ADD PUSH2 0x314 SWAP4 SWAP3 SWAP2 SWAP1 PUSH2 0xA51 JUMP JUMPDEST PUSH1 0x40 MLOAD DUP1 SWAP2 SUB SWAP1 REVERT JUMPDEST DUP2 DUP2 SUB PUSH1 0x0 DUP1 DUP7 PUSH20 0xFFFFFFFFFFFFFFFFFFFFFFFFFFFFFFFFFFFFFFFF AND PUSH20 0xFFFFFFFFFFFFFFFFFFFFFFFFFFFFFFFFFFFFFFFF AND DUP2 MSTORE PUSH1 0x20 ADD SWAP1 DUP2 MSTORE PUSH1 0x20 ADD PUSH1 0x0 KECCAK256 DUP2 SWAP1 SSTORE POP POP JUMPDEST PUSH1 0x0 PUSH20 0xFFFFFFFFFFFFFFFFFFFFFFFFFFFFFFFFFFFFFFFF AND DUP3 PUSH20 0xFFFFFFFFFFFFFFFFFFFFFFFFFFFFFFFFFFFFFFFF AND SUB PUSH2 0x3AD JUMPI DUP1 PUSH1 0x2 PUSH1 0x0 DUP3 DUP3 SLOAD SUB SWAP3 POP POP DUP2 SWAP1 SSTORE POP PUSH2 0x3FA JUMP JUMPDEST DUP1 PUSH1 0x0 DUP1 DUP5 PUSH20 0xFFFFFFFFFFFFFFFFFFFFFFFFFFFFFFFFFFFFFFFF AND PUSH20 0xFFFFFFFFFFFFFFFFFFFFFFFFFFFFFFFFFFFFFFFF AND DUP2 MSTORE PUSH1 0x20 ADD SWAP1 DUP2 MSTORE PUSH1 0x20 ADD PUSH1 0x0 KECCAK256 PUSH1 0x0 DUP3 DUP3 SLOAD ADD SWAP3 POP POP DUP2 SWAP1 SSTORE POP JUMPDEST DUP2 PUSH20 0xFFFFFFFFFFFFFFFFFFFFFFFFFFFFFFFFFFFFFFFF AND DUP4 PUSH20 0xFFFFFFFFFFFFFFFFFFFFFFFFFFFFFFFFFFFFFFFF AND PUSH32 0xDDF252AD1BE2C89B69C2B068FC378DAA952BA7F163C4A11628F55A4DF523B3EF DUP4 PUSH1 0x40 MLOAD PUSH2 0x457 SWAP2 SWAP1 PUSH2 0xA88 JUMP JUMPDEST PUSH1 0x40 MLOAD DUP1 SWAP2 SUB SWAP1 LOG3 POP POP POP JUMP JUMPDEST PUSH1 0x0 PUSH1 0x40 MLOAD SWAP1 POP SWAP1 JUMP JUMPDEST PUSH1 0x0 DUP1 REVERT JUMPDEST PUSH1 0x0 DUP1 REVERT JUMPDEST PUSH1 0x0 DUP1 REVERT JUMPDEST PUSH1 0x0 DUP1 REVERT JUMPDEST PUSH1 0x0 PUSH1 0x1F NOT PUSH1 0x1F DUP4 ADD AND SWAP1 POP SWAP2 SWAP1 POP JUMP JUMPDEST PUSH32 0x4E487B7100000000000000000000000000000000000000000000000000000000 PUSH1 0x0 MSTORE PUSH1 0x41 PUSH1 0x4 MSTORE PUSH1 0x24 PUSH1 0x0 REVERT JUMPDEST PUSH2 0x4CB DUP3 PUSH2 0x482 JUMP JUMPDEST DUP2 ADD DUP2 DUP2 LT PUSH8 0xFFFFFFFFFFFFFFFF DUP3 GT OR ISZERO PUSH2 0x4EA JUMPI PUSH2 0x4E9 PUSH2 0x493 JUMP JUMPDEST JUMPDEST DUP1 PUSH1 0x40 MSTORE POP POP POP JUMP JUMPDEST PUSH1 0x0 PUSH2 0x4FD PUSH2 0x464 JUMP JUMPDEST SWAP1 POP PUSH2 0x509 DUP3 DUP3 PUSH2 0x4C2 JUMP JUMPDEST SWAP2 SWAP1 POP JUMP JUMPDEST PUSH1 0x0 PUSH8 0xFFFFFFFFFFFFFFFF DUP3 GT ISZERO PUSH2 0x529 JUMPI PUSH2 0x528 PUSH2 0x493 JUMP JUMPDEST JUMPDEST PUSH2 0x532 DUP3 PUSH2 0x482 JUMP JUMPDEST SWAP1 POP PUSH1 0x20 DUP2 ADD SWAP1 POP SWAP2 SWAP1 POP JUMP JUMPDEST PUSH1 0x0 JUMPDEST DUP4 DUP2 LT ISZERO PUSH2 0x55D JUMPI DUP1 DUP3 ADD MLOAD DUP2 DUP5 ADD MSTORE PUSH1 0x20 DUP2 ADD SWAP1 POP PUSH2 0x542 JUMP JUMPDEST PUSH1 0x0 DUP5 DUP5 ADD MSTORE POP POP POP POP JUMP JUMPDEST PUSH1 0x0 PUSH2 0x57C PUSH2 0x577 DUP5 PUSH2 0x50E JUMP JUMPDEST PUSH2 0x4F3 JUMP JUMPDEST SWAP1 POP DUP3 DUP2 MSTORE PUSH1 0x20 DUP2 ADD DUP5 DUP5 DUP5 ADD GT ISZERO PUSH2 0x598 JUMPI PUSH2 0x597 PUSH2 0x47D JUMP JUMPDEST JUMPDEST PUSH2 0x5A3 DUP5 DUP3 DUP6 PUSH2 0x53F JUMP JUMPDEST POP SWAP4 SWAP3 POP POP POP JUMP JUMPDEST PUSH1 0x0 DUP3 PUSH1 0x1F DUP4 ADD SLT PUSH2 0x5C0 JUMPI PUSH2 0x5BF PUSH2 0x478 JUMP JUMPDEST JUMPDEST DUP2 MLOAD PUSH2 0x5D0 DUP5 DUP3 PUSH1 0x20 DUP7 ADD PUSH2 0x569 JUMP JUMPDEST SWAP2 POP POP SWAP3 SWAP2 POP POP JUMP JUMPDEST PUSH1 0x0 DUP2 SWAP1 POP SWAP2 SWAP1 POP JUMP JUMPDEST PUSH2 0x5EC DUP2 PUSH2 0x5D9 JUMP JUMPDEST DUP2 EQ PUSH2 0x5F7 JUMPI PUSH1 0x0 DUP1 REVERT JUMPDEST POP JUMP JUMPDEST PUSH1 0x0 DUP2 MLOAD SWAP1 POP PUSH2 0x609 DUP2 PUSH2 0x5E3 JUMP JUMPDEST SWAP3 SWAP2 POP POP JUMP JUMPDEST PUSH1 0x0 DUP1 PUSH1 0x0 PUSH1 0x60 DUP5 DUP7 SUB SLT ISZERO PUSH2 0x628 JUMPI PUSH2 0x627 PUSH2 0x46E JUMP JUMPDEST JUMPDEST PUSH1 0x0 DUP5 ADD MLOAD PUSH8 0xFFFFFFFFFFFFFFFF DUP2 GT ISZERO PUSH2 0x646 JUMPI PUSH2 0x645 PUSH2 0x473 JUMP JUMPDEST JUMPDEST PUSH2 0x652 DUP7 DUP3 DUP8 ADD PUSH2 0x5AB JUMP JUMPDEST SWAP4 POP POP PUSH1 0x20 DUP5 ADD MLOAD PUSH8 0xFFFFFFFFFFFFFFFF DUP2 GT ISZERO PUSH2 0x673 JUMPI PUSH2 0x672 PUSH2 0x473 JUMP JUMPDEST JUMPDEST PUSH2 0x67F DUP7 DUP3 DUP8 ADD PUSH2 0x5AB JUMP JUMPDEST SWAP3 POP POP PUSH1 0x40 PUSH2 0x690 DUP7 DUP3 DUP8 ADD PUSH2 0x5FA JUMP JUMPDEST SWAP2 POP POP SWAP3 POP SWAP3 POP SWAP3 JUMP JUMPDEST PUSH1 0x0 DUP2 MLOAD SWAP1 POP SWAP2 SWAP1 POP JUMP JUMPDEST PUSH32 0x4E487B7100000000000000000000000000000000000000000000000000000000 PUSH1 0x0 MSTORE PUSH1 0x22 PUSH1 0x4 MSTORE PUSH1 0x24 PUSH1 0x0 REVERT JUMPDEST PUSH1 0x0 PUSH1 0x2 DUP3 DIV SWAP1 POP PUSH1 0x1 DUP3 AND DUP1 PUSH2 0x6EC JUMPI PUSH1 0x7F DUP3 AND SWAP2 POP JUMPDEST PUSH1 0x20 DUP3 LT DUP2 SUB PUSH2 0x6FF JUMPI PUSH2 0x6FE PUSH2 0x6A5 JUMP JUMPDEST JUMPDEST POP SWAP2 SWAP1 POP JUMP JUMPDEST PUSH1 0x0 DUP2 SWAP1 POP DUP2 PUSH1 0x0 MSTORE PUSH1 0x20 PUSH1 0x0 KECCAK256 SWAP1 POP SWAP2 SWAP1 POP JUMP JUMPDEST PUSH1 0x0 PUSH1 0x20 PUSH1 0x1F DUP4 ADD DIV SWAP1 POP SWAP2 SWAP1 POP JUMP JUMPDEST PUSH1 0x0 DUP3 DUP3 SHL SWAP1 POP SWAP3 SWAP2 POP POP JUMP JUMPDEST PUSH1 0x0 PUSH1 0x8 DUP4 MUL PUSH2 0x767 PUSH32 0xFFFFFFFFFFFFFFFFFFFFFFFFFFFFFFFFFFFFFFFFFFFFFFFFFFFFFFFFFFFFFFFF DUP3 PUSH2 0x72A JUMP JUMPDEST PUSH2 0x771 DUP7 DUP4 PUSH2 0x72A JUMP JUMPDEST SWAP6 POP DUP1 NOT DUP5 AND SWAP4 POP DUP1 DUP7 AND DUP5 OR SWAP3 POP POP POP SWAP4 SWAP3 POP POP POP JUMP JUMPDEST PUSH1 0x0 DUP2 SWAP1 POP SWAP2 SWAP1 POP JUMP JUMPDEST PUSH1 0x0 PUSH2 0x7AE PUSH2 0x7A9 PUSH2 0x7A4 DUP5 PUSH2 0x5D9 JUMP JUMPDEST PUSH2 0x789 JUMP JUMPDEST PUSH2 0x5D9 JUMP JUMPDEST SWAP1 POP SWAP2 SWAP1 POP JUMP JUMPDEST PUSH1 0x0 DUP2 SWAP1 POP SWAP2 SWAP1 POP JUMP JUMPDEST PUSH2 0x7C8 DUP4 PUSH2 0x793 JUMP JUMPDEST PUSH2 0x7DC PUSH2 0x7D4 DUP3 PUSH2 0x7B5 JUMP JUMPDEST DUP5 DUP5 SLOAD PUSH2 0x737 JUMP JUMPDEST DUP3 SSTORE POP POP POP POP JUMP JUMPDEST PUSH1 0x0 SWAP1 JUMP JUMPDEST PUSH2 0x7F1 PUSH2 0x7E4 JUMP JUMPDEST PUSH2 0x7FC DUP2 DUP5 DUP5 PUSH2 0x7BF JUMP JUMPDEST POP POP POP JUMP JUMPDEST JUMPDEST DUP2 DUP2 LT ISZERO PUSH2 0x820 JUMPI PUSH2 0x815 PUSH1 0x0 DUP3 PUSH2 0x7E9 JUMP JUMPDEST PUSH1 0x1 DUP2 ADD SWAP1 POP PUSH2 0x802 JUMP JUMPDEST POP POP JUMP JUMPDEST PUSH1 0x1F DUP3 GT ISZERO PUSH2 0x865 JUMPI PUSH2 0x836 DUP2 PUSH2 0x705 JUMP JUMPDEST PUSH2 0x83F DUP5 PUSH2 0x71A JUMP JUMPDEST DUP2 ADD PUSH1 0x20 DUP6 LT ISZERO PUSH2 0x84E JUMPI DUP2 SWAP1 POP JUMPDEST PUSH2 0x862 PUSH2 0x85A DUP6 PUSH2 0x71A JUMP JUMPDEST DUP4 ADD DUP3 PUSH2 0x801 JUMP JUMPDEST POP POP JUMPDEST POP POP POP JUMP JUMPDEST PUSH1 0x0 DUP3 DUP3 SHR SWAP1 POP SWAP3 SWAP2 POP POP JUMP JUMPDEST PUSH1 0x0 PUSH2 0x888 PUSH1 0x0 NOT DUP5 PUSH1 0x8 MUL PUSH2 0x86A JUMP JUMPDEST NOT DUP1 DUP4 AND SWAP2 POP POP SWAP3 SWAP2 POP POP JUMP JUMPDEST PUSH1 0x0 PUSH2 0x8A1 DUP4 DUP4 PUSH2 0x877 JUMP JUMPDEST SWAP2 POP DUP3 PUSH1 0x2 MUL DUP3 OR SWAP1 POP SWAP3 SWAP2 POP POP JUMP JUMPDEST PUSH2 0x8BA DUP3 PUSH2 0x69A JUMP JUMPDEST PUSH8 0xFFFFFFFFFFFFFFFF DUP2 GT ISZERO PUSH2 0x8D3 JUMPI PUSH2 0x8D2 PUSH2 0x493 JUMP JUMPDEST JUMPDEST PUSH2 0x8DD DUP3 SLOAD PUSH2 0x6D4 JUMP JUMPDEST PUSH2 0x8E8 DUP3 DUP3 DUP6 PUSH2 0x824 JUMP JUMPDEST PUSH1 0x0 PUSH1 0x20 SWAP1 POP PUSH1 0x1F DUP4 GT PUSH1 0x1 DUP2 EQ PUSH2 0x91B JUMPI PUSH1 0x0 DUP5 ISZERO PUSH2 0x909 JUMPI DUP3 DUP8 ADD MLOAD SWAP1 POP JUMPDEST PUSH2 0x913 DUP6 DUP3 PUSH2 0x895 JUMP JUMPDEST DUP7 SSTORE POP PUSH2 0x97B JUMP JUMPDEST PUSH1 0x1F NOT DUP5 AND PUSH2 0x929 DUP7 PUSH2 0x705 JUMP JUMPDEST PUSH1 0x0 JUMPDEST DUP3 DUP2 LT ISZERO PUSH2 0x951 JUMPI DUP5 DUP10 ADD MLOAD DUP3 SSTORE PUSH1 0x1 DUP3 ADD SWAP2 POP PUSH1 0x20 DUP6 ADD SWAP5 POP PUSH1 0x20 DUP2 ADD SWAP1 POP PUSH2 0x92C JUMP JUMPDEST DUP7 DUP4 LT ISZERO PUSH2 0x96E JUMPI DUP5 DUP10 ADD MLOAD PUSH2 0x96A PUSH1 0x1F DUP10 AND DUP3 PUSH2 0x877 JUMP JUMPDEST DUP4 SSTORE POP JUMPDEST PUSH1 0x1 PUSH1 0x2 DUP9 MUL ADD DUP9 SSTORE POP POP POP JUMPDEST POP POP POP POP POP POP JUMP JUMPDEST PUSH1 0x0 PUSH20 0xFFFFFFFFFFFFFFFFFFFFFFFFFFFFFFFFFFFFFFFF DUP3 AND SWAP1 POP SWAP2 SWAP1 POP JUMP JUMPDEST PUSH1 0x0 PUSH2 0x9AE DUP3 PUSH2 0x983 JUMP JUMPDEST SWAP1 POP SWAP2 SWAP1 POP JUMP JUMPDEST PUSH2 0x9BE DUP2 PUSH2 0x9A3 JUMP JUMPDEST DUP3 MSTORE POP POP JUMP JUMPDEST PUSH1 0x0 PUSH1 0x20 DUP3 ADD SWAP1 POP PUSH2 0x9D9 PUSH1 0x0 DUP4 ADD DUP5 PUSH2 0x9B5 JUMP JUMPDEST SWAP3 SWAP2 POP POP JUMP JUMPDEST PUSH32 0x4E487B7100000000000000000000000000000000000000000000000000000000 PUSH1 0x0 MSTORE PUSH1 0x11 PUSH1 0x4 MSTORE PUSH1 0x24 PUSH1 0x0 REVERT JUMPDEST PUSH1 0x0 PUSH2 0xA19 DUP3 PUSH2 0x5D9 JUMP JUMPDEST SWAP2 POP PUSH2 0xA24 DUP4 PUSH2 0x5D9 JUMP JUMPDEST SWAP3 POP DUP3 DUP3 ADD SWAP1 POP DUP1 DUP3 GT ISZERO PUSH2 0xA3C JUMPI PUSH2 0xA3B PUSH2 0x9DF JUMP JUMPDEST JUMPDEST SWAP3 SWAP2 POP POP JUMP JUMPDEST PUSH2 0xA4B DUP2 PUSH2 0x5D9 JUMP JUMPDEST DUP3 MSTORE POP POP JUMP JUMPDEST PUSH1 0x0 PUSH1 0x60 DUP3 ADD SWAP1 POP PUSH2 0xA66 PUSH1 0x0 DUP4 ADD DUP7 PUSH2 0x9B5 JUMP JUMPDEST PUSH2 0xA73 PUSH1 0x20 DUP4 ADD DUP6 PUSH2 0xA42 JUMP JUMPDEST PUSH2 0xA80 PUSH1 0x40 DUP4 ADD DUP5 PUSH2 0xA42 JUMP JUMPDEST SWAP5 SWAP4 POP POP POP POP JUMP JUMPDEST PUSH1 0x0 PUSH1 0x20 DUP3 ADD SWAP1 POP PUSH2 0xA9D PUSH1 0x0 DUP4 ADD DUP5 PUSH2 0xA42 JUMP JUMPDEST SWAP3 SWAP2 POP POP JUMP JUMPDEST PUSH2 0x11CE DUP1 PUSH2 0xAB2 PUSH1 0x0 CODECOPY PUSH1 0x0 RETURN INVALID PUSH1 0x80 PUSH1 0x40 MSTORE CALLVALUE DUP1 ISZERO PUSH2 0x10 JUMPI PUSH1 0x0 DUP1 REVERT JUMPDEST POP PUSH1 0x4 CALLDATASIZE LT PUSH2 0xCF JUMPI PUSH1 0x0 CALLDATALOAD PUSH1 0xE0 SHR DUP1 PUSH4 0x70A08231 GT PUSH2 0x8C JUMPI DUP1 PUSH4 0x95D89B41 GT PUSH2 0x66 JUMPI DUP1 PUSH4 0x95D89B41 EQ PUSH2 0x202 JUMPI DUP1 PUSH4 0xA9059CBB EQ PUSH2 0x220 JUMPI DUP1 PUSH4 0xDD62ED3E EQ PUSH2 0x250 JUMPI DUP1 PUSH4 0xF2FDE38B EQ PUSH2 0x280 JUMPI PUSH2 0xCF JUMP JUMPDEST DUP1 PUSH4 0x70A08231 EQ PUSH2 0x1AA JUMPI DUP1 PUSH4 0x715018A6 EQ PUSH2 0x1DA JUMPI DUP1 PUSH4 0x8DA5CB5B EQ PUSH2 0x1E4 JUMPI PUSH2 0xCF JUMP JUMPDEST DUP1 PUSH4 0x6FDDE03 EQ PUSH2 0xD4 JUMPI DUP1 PUSH4 0x95EA7B3 EQ PUSH2 0xF2 JUMPI DUP1 PUSH4 0x18160DDD EQ PUSH2 0x122 JUMPI DUP1 PUSH4 0x23B872DD EQ PUSH2 0x140 JUMPI DUP1 PUSH4 0x313CE567 EQ PUSH2 0x170 JUMPI DUP1 PUSH4 0x42966C68 EQ PUSH2 0x18E JUMPI JUMPDEST PUSH1 0x0 DUP1 REVERT JUMPDEST PUSH2 0xDC PUSH2 0x29C JUMP JUMPDEST PUSH1 0x40 MLOAD PUSH2 0xE9 SWAP2 SWAP1 PUSH2 0xDF5 JUMP JUMPDEST PUSH1 0x40 MLOAD DUP1 SWAP2 SUB SWAP1 RETURN JUMPDEST PUSH2 0x10C PUSH1 0x4 DUP1 CALLDATASIZE SUB DUP2 ADD SWAP1 PUSH2 0x107 SWAP2 SWAP1 PUSH2 0xEB0 JUMP JUMPDEST PUSH2 0x32E JUMP JUMPDEST PUSH1 0x40 MLOAD PUSH2 0x119 SWAP2 SWAP1 PUSH2 0xF0B JUMP JUMPDEST PUSH1 0x40 MLOAD DUP1 SWAP2 SUB SWAP1 RETURN JUMPDEST PUSH2 0x12A PUSH2 0x351 JUMP JUMPDEST PUSH1 0x40 MLOAD PUSH2 0x137 SWAP2 SWAP1 PUSH2 0xF35 JUMP JUMPDEST PUSH1 0x40 MLOAD DUP1 SWAP2 SUB SWAP1 RETURN JUMPDEST PUSH2 0x15A PUSH1 0x4 DUP1 CALLDATASIZE SUB DUP2 ADD SWAP1 PUSH2 0x155 SWAP2 SWAP1 PUSH2 0xF50 JUMP JUMPDEST PUSH2 0x35B JUMP JUMPDEST PUSH1 0x40 MLOAD PUSH2 0x167 SWAP2 SWAP1 PUSH2 0xF0B JUMP JUMPDEST PUSH1 0x40 MLOAD DUP1 SWAP2 SUB SWAP1 RETURN JUMPDEST PUSH2 0x178 PUSH2 0x38A JUMP JUMPDEST PUSH1 0x40 MLOAD PUSH2 0x185 SWAP2 SWAP1 PUSH2 0xFBF JUMP JUMPDEST PUSH1 0x40 MLOAD DUP1 SWAP2 SUB SWAP1 RETURN JUMPDEST PUSH2 0x1A8 PUSH1 0x4 DUP1 CALLDATASIZE SUB DUP2 ADD SWAP1 PUSH2 0x1A3 SWAP2 SWAP1 PUSH2 0xFDA JUMP JUMPDEST PUSH2 0x393 JUMP JUMPDEST STOP JUMPDEST PUSH2 0x1C4 PUSH1 0x4 DUP1 CALLDATASIZE SUB DUP2 ADD SWAP1 PUSH2 0x1BF SWAP2 SWAP1 PUSH2 0x1007 JUMP JUMPDEST PUSH2 0x3AF JUMP JUMPDEST PUSH1 0x40 MLOAD PUSH2 0x1D1 SWAP2 SWAP1 PUSH2 0xF35 JUMP JUMPDEST PUSH1 0x40 MLOAD DUP1 SWAP2 SUB SWAP1 RETURN JUMPDEST PUSH2 0x1E2 PUSH2 0x3F7 JUMP JUMPDEST STOP JUMPDEST PUSH2 0x1EC PUSH2 0x40B JUMP JUMPDEST PUSH1 0x40 MLOAD PUSH2 0x1F9 SWAP2 SWAP1 PUSH2 0x1043 JUMP JUMPDEST PUSH1 0x40 MLOAD DUP1 SWAP2 SUB SWAP1 RETURN JUMPDEST PUSH2 0x20A PUSH2 0x435 JUMP JUMPDEST PUSH1 0x40 MLOAD PUSH2 0x217 SWAP2 SWAP1 PUSH2 0xDF5 JUMP JUMPDEST PUSH1 0x40 MLOAD DUP1 SWAP2 SUB SWAP1 RETURN JUMPDEST PUSH2 0x23A PUSH1 0x4 DUP1 CALLDATASIZE SUB DUP2 ADD SWAP1 PUSH2 0x235 SWAP2 SWAP1 PUSH2 0xEB0 JUMP JUMPDEST PUSH2 0x4C7 JUMP JUMPDEST PUSH1 0x40 MLOAD PUSH2 0x247 SWAP2 SWAP1 PUSH2 0xF0B JUMP JUMPDEST PUSH1 0x40 MLOAD DUP1 SWAP2 SUB SWAP1 RETURN JUMPDEST PUSH2 0x26A PUSH1 0x4 DUP1 CALLDATASIZE SUB DUP2 ADD SWAP1 PUSH2 0x265 SWAP2 SWAP1 PUSH2 0x105E JUMP JUMPDEST PUSH2 0x4EA JUMP JUMPDEST PUSH1 0x40 MLOAD PUSH2 0x277 SWAP2 SWAP1 PUSH2 0xF35 JUMP JUMPDEST PUSH1 0x40 MLOAD DUP1 SWAP2 SUB SWAP1 RETURN JUMPDEST PUSH2 0x29A PUSH1 0x4 DUP1 CALLDATASIZE SUB DUP2 ADD SWAP1 PUSH2 0x295 SWAP2 SWAP1 PUSH2 0x1007 JUMP JUMPDEST PUSH2 0x571 JUMP JUMPDEST STOP JUMPDEST PUSH1 0x60 PUSH1 0x3 DUP1 SLOAD PUSH2 0x2AB SWAP1 PUSH2 0x10CD JUMP JUMPDEST DUP1 PUSH1 0x1F ADD PUSH1 0x20 DUP1 SWAP2 DIV MUL PUSH1 0x20 ADD PUSH1 0x40 MLOAD SWAP1 DUP2 ADD PUSH1 0x40 MSTORE DUP1 SWAP3 SWAP2 SWAP1 DUP2 DUP2 MSTORE PUSH1 0x20 ADD DUP3 DUP1 SLOAD PUSH2 0x2D7 SWAP1 PUSH2 0x10CD JUMP JUMPDEST DUP1 ISZERO PUSH2 0x324 JUMPI DUP1 PUSH1 0x1F LT PUSH2 0x2F9 JUMPI PUSH2 0x100 DUP1 DUP4 SLOAD DIV MUL DUP4 MSTORE SWAP2 PUSH1 0x20 ADD SWAP2 PUSH2 0x324 JUMP JUMPDEST DUP3 ADD SWAP2 SWAP1 PUSH1 0x0 MSTORE PUSH1 0x20 PUSH1 0x0 KECCAK256 SWAP1 JUMPDEST DUP2 SLOAD DUP2 MSTORE SWAP1 PUSH1 0x1 ADD SWAP1 PUSH1 0x20 ADD DUP1 DUP4 GT PUSH2 0x307 JUMPI DUP3 SWAP1 SUB PUSH1 0x1F AND DUP3 ADD SWAP2 JUMPDEST POP POP POP POP POP SWAP1 POP SWAP1 JUMP JUMPDEST PUSH1 0x0 DUP1 PUSH2 0x339 PUSH2 0x5F7 JUMP JUMPDEST SWAP1 POP PUSH2 0x346 DUP2 DUP6 DUP6 PUSH2 0x5FF JUMP JUMPDEST PUSH1 0x1 SWAP2 POP POP SWAP3 SWAP2 POP POP JUMP JUMPDEST PUSH1 0x0 PUSH1 0x2 SLOAD SWAP1 POP SWAP1 JUMP JUMPDEST PUSH1 0x0 DUP1 PUSH2 0x366 PUSH2 0x5F7 JUMP JUMPDEST SWAP1 POP PUSH2 0x373 DUP6 DUP3 DUP6 PUSH2 0x611 JUMP JUMPDEST PUSH2 0x37E DUP6 DUP6 DUP6 PUSH2 0x6A6 JUMP JUMPDEST PUSH1 0x1 SWAP2 POP POP SWAP4 SWAP3 POP POP POP JUMP JUMPDEST PUSH1 0x0 PUSH1 0x12 SWAP1 POP SWAP1 JUMP JUMPDEST PUSH2 0x39B PUSH2 0x79A JUMP JUMPDEST PUSH2 0x3AC PUSH2 0x3A6 PUSH2 0x40B JUMP JUMPDEST DUP3 PUSH2 0x821 JUMP JUMPDEST POP JUMP JUMPDEST PUSH1 0x0 DUP1 PUSH1 0x0 DUP4 PUSH20 0xFFFFFFFFFFFFFFFFFFFFFFFFFFFFFFFFFFFFFFFF AND PUSH20 0xFFFFFFFFFFFFFFFFFFFFFFFFFFFFFFFFFFFFFFFF AND DUP2 MSTORE PUSH1 0x20 ADD SWAP1 DUP2 MSTORE PUSH1 0x20 ADD PUSH1 0x0 KECCAK256 SLOAD SWAP1 POP SWAP2 SWAP1 POP JUMP JUMPDEST PUSH2 0x3FF PUSH2 0x79A JUMP JUMPDEST PUSH2 0x409 PUSH1 0x0 PUSH2 0x8A3 JUMP JUMPDEST JUMP JUMPDEST PUSH1 0x0 PUSH1 0x5 PUSH1 0x0 SWAP1 SLOAD SWAP1 PUSH2 0x100 EXP SWAP1 DIV PUSH20 0xFFFFFFFFFFFFFFFFFFFFFFFFFFFFFFFFFFFFFFFF AND SWAP1 POP SWAP1 JUMP JUMPDEST PUSH1 0x60 PUSH1 0x4 DUP1 SLOAD PUSH2 0x444 SWAP1 PUSH2 0x10CD JUMP JUMPDEST DUP1 PUSH1 0x1F ADD PUSH1 0x20 DUP1 SWAP2 DIV MUL PUSH1 0x20 ADD PUSH1 0x40 MLOAD SWAP1 DUP2 ADD PUSH1 0x40 MSTORE DUP1 SWAP3 SWAP2 SWAP1 DUP2 DUP2 MSTORE PUSH1 0x20 ADD DUP3 DUP1 SLOAD PUSH2 0x470 SWAP1 PUSH2 0x10CD JUMP JUMPDEST DUP1 ISZERO PUSH2 0x4BD JUMPI DUP1 PUSH1 0x1F LT PUSH2 0x492 JUMPI PUSH2 0x100 DUP1 DUP4 SLOAD DIV MUL DUP4 MSTORE SWAP2 PUSH1 0x20 ADD SWAP2 PUSH2 0x4BD JUMP JUMPDEST DUP3 ADD SWAP2 SWAP1 PUSH1 0x0 MSTORE PUSH1 0x20 PUSH1 0x0 KECCAK256 SWAP1 JUMPDEST DUP2 SLOAD DUP2 MSTORE SWAP1 PUSH1 0x1 ADD SWAP1 PUSH1 0x20 ADD DUP1 DUP4 GT PUSH2 0x4A0 JUMPI DUP3 SWAP1 SUB PUSH1 0x1F AND DUP3 ADD SWAP2 JUMPDEST POP POP POP POP POP SWAP1 POP SWAP1 JUMP JUMPDEST PUSH1 0x0 DUP1 PUSH2 0x4D2 PUSH2 0x5F7 JUMP JUMPDEST SWAP1 POP PUSH2 0x4DF DUP2 DUP6 DUP6 PUSH2 0x6A6 JUMP JUMPDEST PUSH1 0x1 SWAP2 POP POP SWAP3 SWAP2 POP POP JUMP JUMPDEST PUSH1 0x0 PUSH1 0x1 PUSH1 0x0 DUP5 PUSH20 0xFFFFFFFFFFFFFFFFFFFFFFFFFFFFFFFFFFFFFFFF AND PUSH20 0xFFFFFFFFFFFFFFFFFFFFFFFFFFFFFFFFFFFFFFFF AND DUP2 MSTORE PUSH1 0x20 ADD SWAP1 DUP2 MSTORE PUSH1 0x20 ADD PUSH1 0x0 KECCAK256 PUSH1 0x0 DUP4 PUSH20 0xFFFFFFFFFFFFFFFFFFFFFFFFFFFFFFFFFFFFFFFF AND PUSH20 0xFFFFFFFFFFFFFFFFFFFFFFFFFFFFFFFFFFFFFFFF AND DUP2 MSTORE PUSH1 0x20 ADD SWAP1 DUP2 MSTORE PUSH1 0x20 ADD PUSH1 0x0 KECCAK256 SLOAD SWAP1 POP SWAP3 SWAP2 POP POP JUMP JUMPDEST PUSH2 0x579 PUSH2 0x79A JUMP JUMPDEST PUSH1 0x0 PUSH20 0xFFFFFFFFFFFFFFFFFFFFFFFFFFFFFFFFFFFFFFFF AND DUP2 PUSH20 0xFFFFFFFFFFFFFFFFFFFFFFFFFFFFFFFFFFFFFFFF AND SUB PUSH2 0x5EB JUMPI PUSH1 0x0 PUSH1 0x40 MLOAD PUSH32 0x1E4FBDF700000000000000000000000000000000000000000000000000000000 DUP2 MSTORE PUSH1 0x4 ADD PUSH2 0x5E2 SWAP2 SWAP1 PUSH2 0x1043 JUMP JUMPDEST PUSH1 0x40 MLOAD DUP1 SWAP2 SUB SWAP1 REVERT JUMPDEST PUSH2 0x5F4 DUP2 PUSH2 0x8A3 JUMP JUMPDEST POP JUMP JUMPDEST PUSH1 0x0 CALLER SWAP1 POP SWAP1 JUMP JUMPDEST PUSH2 0x60C DUP4 DUP4 DUP4 PUSH1 0x1 PUSH2 0x969 JUMP JUMPDEST POP POP POP JUMP JUMPDEST PUSH1 0x0 PUSH2 0x61D DUP5 DUP5 PUSH2 0x4EA JUMP JUMPDEST SWAP1 POP PUSH32 0xFFFFFFFFFFFFFFFFFFFFFFFFFFFFFFFFFFFFFFFFFFFFFFFFFFFFFFFFFFFFFFFF DUP2 LT ISZERO PUSH2 0x6A0 JUMPI DUP2 DUP2 LT ISZERO PUSH2 0x690 JUMPI DUP3 DUP2 DUP4 PUSH1 0x40 MLOAD PUSH32 0xFB8F41B200000000000000000000000000000000000000000000000000000000 DUP2 MSTORE PUSH1 0x4 ADD PUSH2 0x687 SWAP4 SWAP3 SWAP2 SWAP1 PUSH2 0x10FE JUMP JUMPDEST PUSH1 0x40 MLOAD DUP1 SWAP2 SUB SWAP1 REVERT JUMPDEST PUSH2 0x69F DUP5 DUP5 DUP5 DUP5 SUB PUSH1 0x0 PUSH2 0x969 JUMP JUMPDEST JUMPDEST POP POP POP POP JUMP JUMPDEST PUSH1 0x0 PUSH20 0xFFFFFFFFFFFFFFFFFFFFFFFFFFFFFFFFFFFFFFFF AND DUP4 PUSH20 0xFFFFFFFFFFFFFFFFFFFFFFFFFFFFFFFFFFFFFFFF AND SUB PUSH2 0x718 JUMPI PUSH1 0x0 PUSH1 0x40 MLOAD PUSH32 0x96C6FD1E00000000000000000000000000000000000000000000000000000000 DUP2 MSTORE PUSH1 0x4 ADD PUSH2 0x70F SWAP2 SWAP1 PUSH2 0x1043 JUMP JUMPDEST PUSH1 0x40 MLOAD DUP1 SWAP2 SUB SWAP1 REVERT JUMPDEST PUSH1 0x0 PUSH20 0xFFFFFFFFFFFFFFFFFFFFFFFFFFFFFFFFFFFFFFFF AND DUP3 PUSH20 0xFFFFFFFFFFFFFFFFFFFFFFFFFFFFFFFFFFFFFFFF AND SUB PUSH2 0x78A JUMPI PUSH1 0x0 PUSH1 0x40 MLOAD PUSH32 0xEC442F0500000000000000000000000000000000000000000000000000000000 DUP2 MSTORE PUSH1 0x4 ADD PUSH2 0x781 SWAP2 SWAP1 PUSH2 0x1043 JUMP JUMPDEST PUSH1 0x40 MLOAD DUP1 SWAP2 SUB SWAP1 REVERT JUMPDEST PUSH2 0x795 DUP4 DUP4 DUP4 PUSH2 0xB40 JUMP JUMPDEST POP POP POP JUMP JUMPDEST PUSH2 0x7A2 PUSH2 0x5F7 JUMP JUMPDEST PUSH20 0xFFFFFFFFFFFFFFFFFFFFFFFFFFFFFFFFFFFFFFFF AND PUSH2 0x7C0 PUSH2 0x40B JUMP JUMPDEST PUSH20 0xFFFFFFFFFFFFFFFFFFFFFFFFFFFFFFFFFFFFFFFF AND EQ PUSH2 0x81F JUMPI PUSH2 0x7E3 PUSH2 0x5F7 JUMP JUMPDEST PUSH1 0x40 MLOAD PUSH32 0x118CDAA700000000000000000000000000000000000000000000000000000000 DUP2 MSTORE PUSH1 0x4 ADD PUSH2 0x816 SWAP2 SWAP1 PUSH2 0x1043 JUMP JUMPDEST PUSH1 0x40 MLOAD DUP1 SWAP2 SUB SWAP1 REVERT JUMPDEST JUMP JUMPDEST PUSH1 0x0 PUSH20 0xFFFFFFFFFFFFFFFFFFFFFFFFFFFFFFFFFFFFFFFF AND DUP3 PUSH20 0xFFFFFFFFFFFFFFFFFFFFFFFFFFFFFFFFFFFFFFFF AND SUB PUSH2 0x893 JUMPI PUSH1 0x0 PUSH1 0x40 MLOAD PUSH32 0x96C6FD1E00000000000000000000000000000000000000000000000000000000 DUP2 MSTORE PUSH1 0x4 ADD PUSH2 0x88A SWAP2 SWAP1 PUSH2 0x1043 JUMP JUMPDEST PUSH1 0x40 MLOAD DUP1 SWAP2 SUB SWAP1 REVERT JUMPDEST PUSH2 0x89F DUP3 PUSH1 0x0 DUP4 PUSH2 0xB40 JUMP JUMPDEST POP POP JUMP JUMPDEST PUSH1 0x0 PUSH1 0x5 PUSH1 0x0 SWAP1 SLOAD SWAP1 PUSH2 0x100 EXP SWAP1 DIV PUSH20 0xFFFFFFFFFFFFFFFFFFFFFFFFFFFFFFFFFFFFFFFF AND SWAP1 POP DUP2 PUSH1 0x5 PUSH1 0x0 PUSH2 0x100 EXP DUP2 SLOAD DUP2 PUSH20 0xFFFFFFFFFFFFFFFFFFFFFFFFFFFFFFFFFFFFFFFF MUL NOT AND SWAP1 DUP4 PUSH20 0xFFFFFFFFFFFFFFFFFFFFFFFFFFFFFFFFFFFFFFFF AND MUL OR SWAP1 SSTORE POP DUP2 PUSH20 0xFFFFFFFFFFFFFFFFFFFFFFFFFFFFFFFFFFFFFFFF AND DUP2 PUSH20 0xFFFFFFFFFFFFFFFFFFFFFFFFFFFFFFFFFFFFFFFF AND PUSH32 0x8BE0079C531659141344CD1FD0A4F28419497F9722A3DAAFE3B4186F6B6457E0 PUSH1 0x40 MLOAD PUSH1 0x40 MLOAD DUP1 SWAP2 SUB SWAP1 LOG3 POP POP JUMP JUMPDEST PUSH1 0x0 PUSH20 0xFFFFFFFFFFFFFFFFFFFFFFFFFFFFFFFFFFFFFFFF AND DUP5 PUSH20 0xFFFFFFFFFFFFFFFFFFFFFFFFFFFFFFFFFFFFFFFF AND SUB PUSH2 0x9DB JUMPI PUSH1 0x0 PUSH1 0x40 MLOAD PUSH32 0xE602DF0500000000000000000000000000000000000000000000000000000000 DUP2 MSTORE PUSH1 0x4 ADD PUSH2 0x9D2 SWAP2 SWAP1 PUSH2 0x1043 JUMP JUMPDEST PUSH1 0x40 MLOAD DUP1 SWAP2 SUB SWAP1 REVERT JUMPDEST PUSH1 0x0 PUSH20 0xFFFFFFFFFFFFFFFFFFFFFFFFFFFFFFFFFFFFFFFF AND DUP4 PUSH20 0xFFFFFFFFFFFFFFFFFFFFFFFFFFFFFFFFFFFFFFFF AND SUB PUSH2 0xA4D JUMPI PUSH1 0x0 PUSH1 0x40 MLOAD PUSH32 0x94280D6200000000000000000000000000000000000000000000000000000000 DUP2 MSTORE PUSH1 0x4 ADD PUSH2 0xA44 SWAP2 SWAP1 PUSH2 0x1043 JUMP JUMPDEST PUSH1 0x40 MLOAD DUP1 SWAP2 SUB SWAP1 REVERT JUMPDEST DUP2 PUSH1 0x1 PUSH1 0x0 DUP7 PUSH20 0xFFFFFFFFFFFFFFFFFFFFFFFFFFFFFFFFFFFFFFFF AND PUSH20 0xFFFFFFFFFFFFFFFFFFFFFFFFFFFFFFFFFFFFFFFF AND DUP2 MSTORE PUSH1 0x20 ADD SWAP1 DUP2 MSTORE PUSH1 0x20 ADD PUSH1 0x0 KECCAK256 PUSH1 0x0 DUP6 PUSH20 0xFFFFFFFFFFFFFFFFFFFFFFFFFFFFFFFFFFFFFFFF AND PUSH20 0xFFFFFFFFFFFFFFFFFFFFFFFFFFFFFFFFFFFFFFFF AND DUP2 MSTORE PUSH1 0x20 ADD SWAP1 DUP2 MSTORE PUSH1 0x20 ADD PUSH1 0x0 KECCAK256 DUP2 SWAP1 SSTORE POP DUP1 ISZERO PUSH2 0xB3A JUMPI DUP3 PUSH20 0xFFFFFFFFFFFFFFFFFFFFFFFFFFFFFFFFFFFFFFFF AND DUP5 PUSH20 0xFFFFFFFFFFFFFFFFFFFFFFFFFFFFFFFFFFFFFFFF AND PUSH32 0x8C5BE1E5EBEC7D5BD14F71427D1E84F3DD0314C0F7B2291E5B200AC8C7C3B925 DUP5 PUSH1 0x40 MLOAD PUSH2 0xB31 SWAP2 SWAP1 PUSH2 0xF35 JUMP JUMPDEST PUSH1 0x40 MLOAD DUP1 SWAP2 SUB SWAP1 LOG3 JUMPDEST POP POP POP POP JUMP JUMPDEST PUSH1 0x0 PUSH20 0xFFFFFFFFFFFFFFFFFFFFFFFFFFFFFFFFFFFFFFFF AND DUP4 PUSH20 0xFFFFFFFFFFFFFFFFFFFFFFFFFFFFFFFFFFFFFFFF AND SUB PUSH2 0xB92 JUMPI DUP1 PUSH1 0x2 PUSH1 0x0 DUP3 DUP3 SLOAD PUSH2 0xB86 SWAP2 SWAP1 PUSH2 0x1164 JUMP JUMPDEST SWAP3 POP POP DUP2 SWAP1 SSTORE POP PUSH2 0xC65 JUMP JUMPDEST PUSH1 0x0 DUP1 PUSH1 0x0 DUP6 PUSH20 0xFFFFFFFFFFFFFFFFFFFFFFFFFFFFFFFFFFFFFFFF AND PUSH20 0xFFFFFFFFFFFFFFFFFFFFFFFFFFFFFFFFFFFFFFFF AND DUP2 MSTORE PUSH1 0x20 ADD SWAP1 DUP2 MSTORE PUSH1 0x20 ADD PUSH1 0x0 KECCAK256 SLOAD SWAP1 POP DUP2 DUP2 LT ISZERO PUSH2 0xC1E JUMPI DUP4 DUP2 DUP4 PUSH1 0x40 MLOAD PUSH32 0xE450D38C00000000000000000000000000000000000000000000000000000000 DUP2 MSTORE PUSH1 0x4 ADD PUSH2 0xC15 SWAP4 SWAP3 SWAP2 SWAP1 PUSH2 0x10FE JUMP JUMPDEST PUSH1 0x40 MLOAD DUP1 SWAP2 SUB SWAP1 REVERT JUMPDEST DUP2 DUP2 SUB PUSH1 0x0 DUP1 DUP7 PUSH20 0xFFFFFFFFFFFFFFFFFFFFFFFFFFFFFFFFFFFFFFFF AND PUSH20 0xFFFFFFFFFFFFFFFFFFFFFFFFFFFFFFFFFFFFFFFF AND DUP2 MSTORE PUSH1 0x20 ADD SWAP1 DUP2 MSTORE PUSH1 0x20 ADD PUSH1 0x0 KECCAK256 DUP2 SWAP1 SSTORE POP POP JUMPDEST PUSH1 0x0 PUSH20 0xFFFFFFFFFFFFFFFFFFFFFFFFFFFFFFFFFFFFFFFF AND DUP3 PUSH20 0xFFFFFFFFFFFFFFFFFFFFFFFFFFFFFFFFFFFFFFFF AND SUB PUSH2 0xCAE JUMPI DUP1 PUSH1 0x2 PUSH1 0x0 DUP3 DUP3 SLOAD SUB SWAP3 POP POP DUP2 SWAP1 SSTORE POP PUSH2 0xCFB JUMP JUMPDEST DUP1 PUSH1 0x0 DUP1 DUP5 PUSH20 0xFFFFFFFFFFFFFFFFFFFFFFFFFFFFFFFFFFFFFFFF AND PUSH20 0xFFFFFFFFFFFFFFFFFFFFFFFFFFFFFFFFFFFFFFFF AND DUP2 MSTORE PUSH1 0x20 ADD SWAP1 DUP2 MSTORE PUSH1 0x20 ADD PUSH1 0x0 KECCAK256 PUSH1 0x0 DUP3 DUP3 SLOAD ADD SWAP3 POP POP DUP2 SWAP1 SSTORE POP JUMPDEST DUP2 PUSH20 0xFFFFFFFFFFFFFFFFFFFFFFFFFFFFFFFFFFFFFFFF AND DUP4 PUSH20 0xFFFFFFFFFFFFFFFFFFFFFFFFFFFFFFFFFFFFFFFF AND PUSH32 0xDDF252AD1BE2C89B69C2B068FC378DAA952BA7F163C4A11628F55A4DF523B3EF DUP4 PUSH1 0x40 MLOAD PUSH2 0xD58 SWAP2 SWAP1 PUSH2 0xF35 JUMP JUMPDEST PUSH1 0x40 MLOAD DUP1 SWAP2 SUB SWAP1 LOG3 POP POP POP JUMP JUMPDEST PUSH1 0x0 DUP2 MLOAD SWAP1 POP SWAP2 SWAP1 POP JUMP JUMPDEST PUSH1 0x0 DUP3 DUP3 MSTORE PUSH1 0x20 DUP3 ADD SWAP1 POP SWAP3 SWAP2 POP POP JUMP JUMPDEST PUSH1 0x0 JUMPDEST DUP4 DUP2 LT ISZERO PUSH2 0xD9F JUMPI DUP1 DUP3 ADD MLOAD DUP2 DUP5 ADD MSTORE PUSH1 0x20 DUP2 ADD SWAP1 POP PUSH2 0xD84 JUMP JUMPDEST PUSH1 0x0 DUP5 DUP5 ADD MSTORE POP POP POP POP JUMP JUMPDEST PUSH1 0x0 PUSH1 0x1F NOT PUSH1 0x1F DUP4 ADD AND SWAP1 POP SWAP2 SWAP1 POP JUMP JUMPDEST PUSH1 0x0 PUSH2 0xDC7 DUP3 PUSH2 0xD65 JUMP JUMPDEST PUSH2 0xDD1 DUP2 DUP6 PUSH2 0xD70 JUMP JUMPDEST SWAP4 POP PUSH2 0xDE1 DUP2 DUP6 PUSH1 0x20 DUP7 ADD PUSH2 0xD81 JUMP JUMPDEST PUSH2 0xDEA DUP2 PUSH2 0xDAB JUMP JUMPDEST DUP5 ADD SWAP2 POP POP SWAP3 SWAP2 POP POP JUMP JUMPDEST PUSH1 0x0 PUSH1 0x20 DUP3 ADD SWAP1 POP DUP2 DUP2 SUB PUSH1 0x0 DUP4 ADD MSTORE PUSH2 0xE0F DUP2 DUP5 PUSH2 0xDBC JUMP JUMPDEST SWAP1 POP SWAP3 SWAP2 POP POP JUMP JUMPDEST PUSH1 0x0 DUP1 REVERT JUMPDEST PUSH1 0x0 PUSH20 0xFFFFFFFFFFFFFFFFFFFFFFFFFFFFFFFFFFFFFFFF DUP3 AND SWAP1 POP SWAP2 SWAP1 POP JUMP JUMPDEST PUSH1 0x0 PUSH2 0xE47 DUP3 PUSH2 0xE1C JUMP JUMPDEST SWAP1 POP SWAP2 SWAP1 POP JUMP JUMPDEST PUSH2 0xE57 DUP2 PUSH2 0xE3C JUMP JUMPDEST DUP2 EQ PUSH2 0xE62 JUMPI PUSH1 0x0 DUP1 REVERT JUMPDEST POP JUMP JUMPDEST PUSH1 0x0 DUP2 CALLDATALOAD SWAP1 POP PUSH2 0xE74 DUP2 PUSH2 0xE4E JUMP JUMPDEST SWAP3 SWAP2 POP POP JUMP JUMPDEST PUSH1 0x0 DUP2 SWAP1 POP SWAP2 SWAP1 POP JUMP JUMPDEST PUSH2 0xE8D DUP2 PUSH2 0xE7A JUMP JUMPDEST DUP2 EQ PUSH2 0xE98 JUMPI PUSH1 0x0 DUP1 REVERT JUMPDEST POP JUMP JUMPDEST PUSH1 0x0 DUP2 CALLDATALOAD SWAP1 POP PUSH2 0xEAA DUP2 PUSH2 0xE84 JUMP JUMPDEST SWAP3 SWAP2 POP POP JUMP JUMPDEST PUSH1 0x0 DUP1 PUSH1 0x40 DUP4 DUP6 SUB SLT ISZERO PUSH2 0xEC7 JUMPI PUSH2 0xEC6 PUSH2 0xE17 JUMP JUMPDEST JUMPDEST PUSH1 0x0 PUSH2 0xED5 DUP6 DUP3 DUP7 ADD PUSH2 0xE65 JUMP JUMPDEST SWAP3 POP POP PUSH1 0x20 PUSH2 0xEE6 DUP6 DUP3 DUP7 ADD PUSH2 0xE9B JUMP JUMPDEST SWAP2 POP POP SWAP3 POP SWAP3 SWAP1 POP JUMP JUMPDEST PUSH1 0x0 DUP2 ISZERO ISZERO SWAP1 POP SWAP2 SWAP1 POP JUMP JUMPDEST PUSH2 0xF05 DUP2 PUSH2 0xEF0 JUMP JUMPDEST DUP3 MSTORE POP POP JUMP JUMPDEST PUSH1 0x0 PUSH1 0x20 DUP3 ADD SWAP1 POP PUSH2 0xF20 PUSH1 0x0 DUP4 ADD DUP5 PUSH2 0xEFC JUMP JUMPDEST SWAP3 SWAP2 POP POP JUMP JUMPDEST PUSH2 0xF2F DUP2 PUSH2 0xE7A JUMP JUMPDEST DUP3 MSTORE POP POP JUMP JUMPDEST PUSH1 0x0 PUSH1 0x20 DUP3 ADD SWAP1 POP PUSH2 0xF4A PUSH1 0x0 DUP4 ADD DUP5 PUSH2 0xF26 JUMP JUMPDEST SWAP3 SWAP2 POP POP JUMP JUMPDEST PUSH1 0x0 DUP1 PUSH1 0x0 PUSH1 0x60 DUP5 DUP7 SUB SLT ISZERO PUSH2 0xF69 JUMPI PUSH2 0xF68 PUSH2 0xE17 JUMP JUMPDEST JUMPDEST PUSH1 0x0 PUSH2 0xF77 DUP7 DUP3 DUP8 ADD PUSH2 0xE65 JUMP JUMPDEST SWAP4 POP POP PUSH1 0x20 PUSH2 0xF88 DUP7 DUP3 DUP8 ADD PUSH2 0xE65 JUMP JUMPDEST SWAP3 POP POP PUSH1 0x40 PUSH2 0xF99 DUP7 DUP3 DUP8 ADD PUSH2 0xE9B JUMP JUMPDEST SWAP2 POP POP SWAP3 POP SWAP3 POP SWAP3 JUMP JUMPDEST PUSH1 0x0 PUSH1 0xFF DUP3 AND SWAP1 POP SWAP2 SWAP1 POP JUMP JUMPDEST PUSH2 0xFB9 DUP2 PUSH2 0xFA3 JUMP JUMPDEST DUP3 MSTORE POP POP JUMP JUMPDEST PUSH1 0x0 PUSH1 0x20 DUP3 ADD SWAP1 POP PUSH2 0xFD4 PUSH1 0x0 DUP4 ADD DUP5 PUSH2 0xFB0 JUMP JUMPDEST SWAP3 SWAP2 POP POP JUMP JUMPDEST PUSH1 0x0 PUSH1 0x20 DUP3 DUP5 SUB SLT ISZERO PUSH2 0xFF0 JUMPI PUSH2 0xFEF PUSH2 0xE17 JUMP JUMPDEST JUMPDEST PUSH1 0x0 PUSH2 0xFFE DUP5 DUP3 DUP6 ADD PUSH2 0xE9B JUMP JUMPDEST SWAP2 POP POP SWAP3 SWAP2 POP POP JUMP JUMPDEST PUSH1 0x0 PUSH1 0x20 DUP3 DUP5 SUB SLT ISZERO PUSH2 0x101D JUMPI PUSH2 0x101C PUSH2 0xE17 JUMP JUMPDEST JUMPDEST PUSH1 0x0 PUSH2 0x102B DUP5 DUP3 DUP6 ADD PUSH2 0xE65 JUMP JUMPDEST SWAP2 POP POP SWAP3 SWAP2 POP POP JUMP JUMPDEST PUSH2 0x103D DUP2 PUSH2 0xE3C JUMP JUMPDEST DUP3 MSTORE POP POP JUMP JUMPDEST PUSH1 0x0 PUSH1 0x20 DUP3 ADD SWAP1 POP PUSH2 0x1058 PUSH1 0x0 DUP4 ADD DUP5 PUSH2 0x1034 JUMP JUMPDEST SWAP3 SWAP2 POP POP JUMP JUMPDEST PUSH1 0x0 DUP1 PUSH1 0x40 DUP4 DUP6 SUB SLT ISZERO PUSH2 0x1075 JUMPI PUSH2 0x1074 PUSH2 0xE17 JUMP JUMPDEST JUMPDEST PUSH1 0x0 PUSH2 0x1083 DUP6 DUP3 DUP7 ADD PUSH2 0xE65 JUMP JUMPDEST SWAP3 POP POP PUSH1 0x20 PUSH2 0x1094 DUP6 DUP3 DUP7 ADD PUSH2 0xE65 JUMP JUMPDEST SWAP2 POP POP SWAP3 POP SWAP3 SWAP1 POP JUMP JUMPDEST PUSH32 0x4E487B7100000000000000000000000000000000000000000000000000000000 PUSH1 0x0 MSTORE PUSH1 0x22 PUSH1 0x4 MSTORE PUSH1 0x24 PUSH1 0x0 REVERT JUMPDEST PUSH1 0x0 PUSH1 0x2 DUP3 DIV SWAP1 POP PUSH1 0x1 DUP3 AND DUP1 PUSH2 0x10E5 JUMPI PUSH1 0x7F DUP3 AND SWAP2 POP JUMPDEST PUSH1 0x20 DUP3 LT DUP2 SUB PUSH2 0x10F8 JUMPI PUSH2 0x10F7 PUSH2 0x109E JUMP JUMPDEST JUMPDEST POP SWAP2 SWAP1 POP JUMP JUMPDEST PUSH1 0x0 PUSH1 0x60 DUP3 ADD SWAP1 POP PUSH2 0x1113 PUSH1 0x0 DUP4 ADD DUP7 PUSH2 0x1034 JUMP JUMPDEST PUSH2 0x1120 PUSH1 0x20 DUP4 ADD DUP6 PUSH2 0xF26 JUMP JUMPDEST PUSH2 0x112D PUSH1 0x40 DUP4 ADD DUP5 PUSH2 0xF26 JUMP JUMPDEST SWAP5 SWAP4 POP POP POP POP JUMP JUMPDEST PUSH32 0x4E487B7100000000000000000000000000000000000000000000000000000000 PUSH1 0x0 MSTORE PUSH1 0x11 PUSH1 0x4 MSTORE PUSH1 0x24 PUSH1 0x0 REVERT JUMPDEST PUSH1 0x0 PUSH2 0x116F DUP3 PUSH2 0xE7A JUMP JUMPDEST SWAP2 POP PUSH2 0x117A DUP4 PUSH2 0xE7A JUMP JUMPDEST SWAP3 POP DUP3 DUP3 ADD SWAP1 POP DUP1 DUP3 GT ISZERO PUSH2 0x1192 JUMPI PUSH2 0x1191 PUSH2 0x1135 JUMP JUMPDEST JUMPDEST SWAP3 SWAP2 POP POP JUMP INVALID LOG2 PUSH5 0x6970667358 0x22 SLT KECCAK256 TSTORE DUP4 0xE5 BLOBBASEFEE PUSH8 0xC7F8ECC3FA8FD4BE 0xC3 LOG2 DUP16 BASEFEE GT TLOAD 0xF9 0x21 MCOPY CALLDATALOAD 0xE7 GT 0xDF MULMOD EXTCODECOPY SWAP2 0xC8 0x27 PUSH20 0x64736F6C634300081C0033A26469706673582212 KECCAK256 0xC 0xD2 CREATE2 0xDD 0xAA DUP11 0x1F PUSH32 0xF584EB323A8B33A446BABEC4F2EF703679E743218EC1F76264736F6C63430008 SHR STOP CALLER "
        },
        "methodIdentifiers": {
          "factory()": "c45a0155",
          "launchToken(string,string,uint256,address)": "8ff0bb99",
          "owner()": "8da5cb5b",
          "positionManager()": "791b98bc",
          "quoter()": "c6bbd5a7",
          "renounceOwnership()": "715018a6",
          "swapRouter()": "c31c9c07",
          "transferOwnership(address)": "f2fde38b"
        }
      }
    }
  }
}