{
    "_format": "hh-sol-artifact-1",
    "contractName": "Launchpad",
    "sourceName": "contracts/Launchpad.sol",
    "abi": [
        {
            "inputs": [],
            "stateMutability": "nonpayable",
            "type": "constructor"
        },
        {
            "inputs": [
                {
                    "internalType": "address",
                    "name": "owner",
                    "type": "address"
                }
            ],
            "name": "OwnableInvalidOwner",
            "type": "error"
        },
        {
            "inputs": [
                {
                    "internalType": "address",
                    "name": "account",
                    "type": "address"
                }
            ],
            "name": "OwnableUnauthorizedAccount",
            "type": "error"
        },
        {
            "inputs": [
                {
                    "internalType": "address",
                    "name": "token",
                    "type": "address"
                }
            ],
            "name": "SafeERC20FailedOperation",
            "type": "error"
        },
        {
            "anonymous": false,
            "inputs": [
                {
                    "indexed": true,
                    "internalType": "address",
                    "name": "previousOwner",
                    "type": "address"
                },
                {
                    "indexed": true,
                    "internalType": "address",
                    "name": "newOwner",
                    "type": "address"
                }
            ],
            "name": "OwnershipTransferred",
            "type": "event"
        },
        {
            "anonymous": false,
            "inputs": [
                {
                    "indexed": true,
                    "internalType": "address",
                    "name": "creator",
                    "type": "address"
                },
                {
                    "indexed": false,
                    "internalType": "address",
                    "name": "tokenAddress",
                    "type": "address"
                }
            ],
            "name": "TokenLaunched",
            "type": "event"
        },
        {
            "inputs": [
                {
                    "internalType": "string",
                    "name": "name",
                    "type": "string"
                },
                {
                    "internalType": "string",
                    "name": "symbol",
                    "type": "string"
                },
                {
                    "internalType": "uint256",
                    "name": "initialSupply",
                    "type": "uint256"
                },
                {
                    "internalType": "address",
                    "name": "pairedToken",
                    "type": "address"
                },
                {
                    "internalType": "uint256",
                    "name": "liquidityMemecoinAmount",
                    "type": "uint256"
                },
                {
                    "internalType": "uint256",
                    "name": "liquidityPairedTokenAmount",
                    "type": "uint256"
                }
            ],
            "name": "launchToken",
            "outputs": [],
            "stateMutability": "nonpayable",
            "type": "function"
        },
        {
            "inputs": [],
            "name": "owner",
            "outputs": [
                {
                    "internalType": "address",
                    "name": "",
                    "type": "address"
                }
            ],
            "stateMutability": "view",
            "type": "function"
        },
        {
            "inputs": [],
            "name": "renounceOwnership",
            "outputs": [],
            "stateMutability": "nonpayable",
            "type": "function"
        },
        {
            "inputs": [
                {
                    "internalType": "address",
                    "name": "newOwner",
                    "type": "address"
                }
            ],
            "name": "transferOwnership",
            "outputs": [],
            "stateMutability": "nonpayable",
            "type": "function"
        },
        {
            "inputs": [
                {
                    "internalType": "address",
                    "name": "tokenAddress",
                    "type": "address"
                },
                {
                    "internalType": "uint256",
                    "name": "amount",
                    "type": "uint256"
                }
            ],
            "name": "withdrawToken",
            "outputs": [],
            "stateMutability": "nonpayable",
            "type": "function"
        }
    ],
    "bytecode": "0x608060405234801561001057600080fd5b5033600073ffffffffffffffffffffffffffffffffffffffff168173ffffffffffffffffffffffffffffffffffffffff16036100845760006040517f1e4fbdf700000000000000000000000000000000000000000000000000000000815260040161007b919061019e565b60405180910390fd5b6100938161009960201b60201c565b506101b9565b60008060009054906101000a900473ffffffffffffffffffffffffffffffffffffffff169050816000806101000a81548173ffffffffffffffffffffffffffffffffffffffff021916908373ffffffffffffffffffffffffffffffffffffffff1602179055508173ffffffffffffffffffffffffffffffffffffffff168173ffffffffffffffffffffffffffffffffffffffff167f8be0079c531659141344cd1fd0a4f28419497f9722a3daafe3b4186f6b6457e060405160405180910390a35050565b600073ffffffffffffffffffffffffffffffffffffffff82169050919050565b60006101888261015d565b9050919050565b6101988161017d565b82525050565b60006020820190506101b3600083018461018f565b92915050565b611eac806101c86000396000f3fe608060405234801561001057600080fd5b50600436106100575760003560e01c806339643c291461005c578063715018a6146100785780638da5cb5b146100825780639e281a98146100a0578063f2fde38b146100bc575b600080fd5b61007660048036038101906100719190610c29565b6100d8565b005b61008061050d565b005b61008a610521565b6040516100979190610cfd565b60405180910390f35b6100ba60048036038101906100b59190610d18565b61054a565b005b6100d660048036038101906100d19190610d58565b6106b2565b005b600060149054906101000a900460ff1615610128576040517f08c379a000000000000000000000000000000000000000000000000000000000815260040161011f90610de2565b60405180910390fd5b6001600060146101000a81548160ff0219169083151502179055506000865111610187576040517f08c379a000000000000000000000000000000000000000000000000000000000815260040161017e90610e4e565b60405180910390fd5b60008551116101cb576040517f08c379a00000000000000000000000000000000000000000000000000000000081526004016101c290610eba565b60405180910390fd5b6000841161020e576040517f08c379a000000000000000000000000000000000000000000000000000000000815260040161020590610f4c565b60405180910390fd5b600073ffffffffffffffffffffffffffffffffffffffff168373ffffffffffffffffffffffffffffffffffffffff160361027d576040517f08c379a000000000000000000000000000000000000000000000000000000000815260040161027490610fde565b60405180910390fd5b600082116102c0576040517f08c379a00000000000000000000000000000000000000000000000000000000081526004016102b790611070565b60405180910390fd5b60008111610303576040517f08c379a00000000000000000000000000000000000000000000000000000000081526004016102fa90611102565b60405180910390fd5b81841015610346576040517f08c379a000000000000000000000000000000000000000000000000000000000815260040161033d90611194565b60405180910390fd5b6000839050818173ffffffffffffffffffffffffffffffffffffffff166370a08231336040518263ffffffff1660e01b81526004016103859190610cfd565b602060405180830381865afa1580156103a2573d6000803e3d6000fd5b505050506040513d601f19601f820116820180604052508101906103c691906111c9565b1015610407576040517f08c379a00000000000000000000000000000000000000000000000000000000081526004016103fe90611268565b60405180910390fd5b600087878760405161041890610a2e565b61042493929190611305565b604051809103906000f080158015610440573d6000803e3d6000fd5b5090503373ffffffffffffffffffffffffffffffffffffffff167fab3e0ae7b7d4c37d3539a4f3e3ac856a540af410acce171c797bbf88c1853b2d826040516104899190610cfd565b60405180910390a26104be3330858573ffffffffffffffffffffffffffffffffffffffff16610738909392919063ffffffff16565b6104e933848473ffffffffffffffffffffffffffffffffffffffff166107ba9092919063ffffffff16565b505060008060146101000a81548160ff021916908315150217905550505050505050565b610515610839565b61051f60006108c0565b565b60008060009054906101000a900473ffffffffffffffffffffffffffffffffffffffff16905090565b610552610839565b600073ffffffffffffffffffffffffffffffffffffffff168273ffffffffffffffffffffffffffffffffffffffff16036105c1576040517f08c379a00000000000000000000000000000000000000000000000000000000081526004016105b890611396565b60405180910390fd5b6000829050818173ffffffffffffffffffffffffffffffffffffffff166370a08231306040518263ffffffff1660e01b81526004016106009190610cfd565b602060405180830381865afa15801561061d573d6000803e3d6000fd5b505050506040513d601f19601f8201168201806040525081019061064191906111c9565b1015610682576040517f08c379a000000000000000000000000000000000000000000000000000000000815260040161067990611402565b60405180910390fd5b6106ad33838373ffffffffffffffffffffffffffffffffffffffff166107ba9092919063ffffffff16565b505050565b6106ba610839565b600073ffffffffffffffffffffffffffffffffffffffff168173ffffffffffffffffffffffffffffffffffffffff160361072c5760006040517f1e4fbdf70000000000000000000000000000000000000000000000000000000081526004016107239190610cfd565b60405180910390fd5b610735816108c0565b50565b6107b4848573ffffffffffffffffffffffffffffffffffffffff166323b872dd86868660405160240161076d93929190611422565b604051602081830303815290604052915060e01b6020820180517bffffffffffffffffffffffffffffffffffffffffffffffffffffffff8381831617835250505050610984565b50505050565b610834838473ffffffffffffffffffffffffffffffffffffffff1663a9059cbb85856040516024016107ed929190611459565b604051602081830303815290604052915060e01b6020820180517bffffffffffffffffffffffffffffffffffffffffffffffffffffffff8381831617835250505050610984565b505050565b610841610a26565b73ffffffffffffffffffffffffffffffffffffffff1661085f610521565b73ffffffffffffffffffffffffffffffffffffffff16146108be57610882610a26565b6040517f118cdaa70000000000000000000000000000000000000000000000000000000081526004016108b59190610cfd565b60405180910390fd5b565b60008060009054906101000a900473ffffffffffffffffffffffffffffffffffffffff169050816000806101000a81548173ffffffffffffffffffffffffffffffffffffffff021916908373ffffffffffffffffffffffffffffffffffffffff1602179055508173ffffffffffffffffffffffffffffffffffffffff168173ffffffffffffffffffffffffffffffffffffffff167f8be0079c531659141344cd1fd0a4f28419497f9722a3daafe3b4186f6b6457e060405160405180910390a35050565b600080602060008451602086016000885af1806109a7576040513d6000823e3d81fd5b3d9250600051915050600082146109c25760018114156109de565b60008473ffffffffffffffffffffffffffffffffffffffff163b145b15610a2057836040517f5274afe7000000000000000000000000000000000000000000000000000000008152600401610a179190610cfd565b60405180910390fd5b50505050565b600033905090565b6109f48061148383390190565b6000604051905090565b600080fd5b600080fd5b600080fd5b600080fd5b6000601f19601f8301169050919050565b7f4e487b7100000000000000000000000000000000000000000000000000000000600052604160045260246000fd5b610aa282610a59565b810181811067ffffffffffffffff82111715610ac157610ac0610a6a565b5b80604052505050565b6000610ad4610a3b565b9050610ae08282610a99565b919050565b600067ffffffffffffffff821115610b0057610aff610a6a565b5b610b0982610a59565b9050602081019050919050565b82818337600083830152505050565b6000610b38610b3384610ae5565b610aca565b905082815260208101848484011115610b5457610b53610a54565b5b610b5f848285610b16565b509392505050565b600082601f830112610b7c57610b7b610a4f565b5b8135610b8c848260208601610b25565b91505092915050565b6000819050919050565b610ba881610b95565b8114610bb357600080fd5b50565b600081359050610bc581610b9f565b92915050565b600073ffffffffffffffffffffffffffffffffffffffff82169050919050565b6000610bf682610bcb565b9050919050565b610c0681610beb565b8114610c1157600080fd5b50565b600081359050610c2381610bfd565b92915050565b60008060008060008060c08789031215610c4657610c45610a45565b5b600087013567ffffffffffffffff811115610c6457610c63610a4a565b5b610c7089828a01610b67565b965050602087013567ffffffffffffffff811115610c9157610c90610a4a565b5b610c9d89828a01610b67565b9550506040610cae89828a01610bb6565b9450506060610cbf89828a01610c14565b9350506080610cd089828a01610bb6565b92505060a0610ce189828a01610bb6565b9150509295509295509295565b610cf781610beb565b82525050565b6000602082019050610d126000830184610cee565b92915050565b60008060408385031215610d2f57610d2e610a45565b5b6000610d3d85828601610c14565b9250506020610d4e85828601610bb6565b9150509250929050565b600060208284031215610d6e57610d6d610a45565b5b6000610d7c84828501610c14565b91505092915050565b600082825260208201905092915050565b7f4c61756e63687061643a207265656e7472616e742063616c6c00000000000000600082015250565b6000610dcc601983610d85565b9150610dd782610d96565b602082019050919050565b60006020820190508181036000830152610dfb81610dbf565b9050919050565b7f546f6b656e206e616d652063616e6e6f7420626520656d707479000000000000600082015250565b6000610e38601a83610d85565b9150610e4382610e02565b602082019050919050565b60006020820190508181036000830152610e6781610e2b565b9050919050565b7f546f6b656e2073796d626f6c2063616e6e6f7420626520656d70747900000000600082015250565b6000610ea4601c83610d85565b9150610eaf82610e6e565b602082019050919050565b60006020820190508181036000830152610ed381610e97565b9050919050565b7f496e697469616c20737570706c79206d7573742062652067726561746572207460008201527f68616e2030000000000000000000000000000000000000000000000000000000602082015250565b6000610f36602583610d85565b9150610f4182610eda565b604082019050919050565b60006020820190508181036000830152610f6581610f29565b9050919050565b7f50616972656420746f6b656e20616464726573732063616e6e6f74206265207a60008201527f65726f0000000000000000000000000000000000000000000000000000000000602082015250565b6000610fc8602383610d85565b9150610fd382610f6c565b604082019050919050565b60006020820190508181036000830152610ff781610fbb565b9050919050565b7f4c6971756964697479206d656d65636f696e20616d6f756e74206d757374206260008201527f652067726561746572207468616e203000000000000000000000000000000000602082015250565b600061105a603083610d85565b915061106582610ffe565b604082019050919050565b600060208201905081810360008301526110898161104d565b9050919050565b7f4c69717569646974792070616972656420746f6b656e20616d6f756e74206d7560008201527f73742062652067726561746572207468616e2030000000000000000000000000602082015250565b60006110ec603483610d85565b91506110f782611090565b604082019050919050565b6000602082019050818103600083015261111b816110df565b9050919050565b7f496e697469616c20737570706c79206d75737420636f766572206c697175696460008201527f6974790000000000000000000000000000000000000000000000000000000000602082015250565b600061117e602383610d85565b915061118982611122565b604082019050919050565b600060208201905081810360008301526111ad81611171565b9050919050565b6000815190506111c381610b9f565b92915050565b6000602082840312156111df576111de610a45565b5b60006111ed848285016111b4565b91505092915050565b7f496e73756666696369656e742070616972656420746f6b656e2062616c616e6360008201527f6500000000000000000000000000000000000000000000000000000000000000602082015250565b6000611252602183610d85565b915061125d826111f6565b604082019050919050565b6000602082019050818103600083015261128181611245565b9050919050565b600081519050919050565b60005b838110156112b1578082015181840152602081019050611296565b60008484015250505050565b60006112c882611288565b6112d28185610d85565b93506112e2818560208601611293565b6112eb81610a59565b840191505092915050565b6112ff81610b95565b82525050565b6000606082019050818103600083015261131f81866112bd565b9050818103602083015261133381856112bd565b905061134260408301846112f6565b949350505050565b7f496e76616c696420746f6b656e20616464726573730000000000000000000000600082015250565b6000611380601583610d85565b915061138b8261134a565b602082019050919050565b600060208201905081810360008301526113af81611373565b9050919050565b7f496e73756666696369656e742062616c616e6365000000000000000000000000600082015250565b60006113ec601483610d85565b91506113f7826113b6565b602082019050919050565b6000602082019050818103600083015261141b816113df565b9050919050565b60006060820190506114376000830186610cee565b6114446020830185610cee565b61145160408301846112f6565b949350505050565b600060408201905061146e6000830185610cee565b61147b60208301846112f6565b939250505056fe608060405234801561001057600080fd5b506040516109f43803806109f483398181016040528101906100329190610250565b826000908161004191906104f2565b50816001908161005191906104f2565b508060028190555080600360003373ffffffffffffffffffffffffffffffffffffffff1673ffffffffffffffffffffffffffffffffffffffff168152602001908152602001600020819055505050506105c4565b6000604051905090565b600080fd5b600080fd5b600080fd5b600080fd5b6000601f19601f8301169050919050565b7f4e487b7100000000000000000000000000000000000000000000000000000000600052604160045260246000fd5b61010c826100c3565b810181811067ffffffffffffffff8211171561012b5761012a6100d4565b5b80604052505050565b600061013e6100a5565b905061014a8282610103565b919050565b600067ffffffffffffffff82111561016a576101696100d4565b5b610173826100c3565b9050602081019050919050565b60005b8381101561019e578082015181840152602081019050610183565b60008484015250505050565b60006101bd6101b88461014f565b610134565b9050828152602081018484840111156101d9576101d86100be565b5b6101e4848285610180565b509392505050565b600082601f830112610201576102006100b9565b5b81516102118482602086016101aa565b91505092915050565b6000819050919050565b61022d8161021a565b811461023857600080fd5b50565b60008151905061024a81610224565b92915050565b600080600060608486031215610269576102686100af565b5b600084015167ffffffffffffffff811115610287576102866100b4565b5b610293868287016101ec565b935050602084015167ffffffffffffffff8111156102b4576102b36100b4565b5b6102c0868287016101ec565b92505060406102d18682870161023b565b9150509250925092565b600081519050919050565b7f4e487b7100000000000000000000000000000000000000000000000000000000600052602260045260246000fd5b6000600282049050600182168061032d57607f821691505b6020821081036103405761033f6102e6565b5b50919050565b60008190508160005260206000209050919050565b60006020601f8301049050919050565b600082821b905092915050565b6000600883026103a87fffffffffffffffffffffffffffffffffffffffffffffffffffffffffffffffff8261036b565b6103b2868361036b565b95508019841693508086168417925050509392505050565b6000819050919050565b60006103ef6103ea6103e58461021a565b6103ca565b61021a565b9050919050565b6000819050919050565b610409836103d4565b61041d610415826103f6565b848454610378565b825550505050565b600090565b610432610425565b61043d818484610400565b505050565b5b818110156104615761045660008261042a565b600181019050610443565b5050565b601f8211156104a65761047781610346565b6104808461035b565b8101602085101561048f578190505b6104a361049b8561035b565b830182610442565b50505b505050565b600082821c905092915050565b60006104c9600019846008026104ab565b1980831691505092915050565b60006104e283836104b8565b9150826002028217905092915050565b6104fb826102db565b67ffffffffffffffff811115610514576105136100d4565b5b61051e8254610315565b610529828285610465565b600060209050601f83116001811461055c576000841561054a578287015190505b61055485826104d6565b8655506105bc565b601f19841661056a86610346565b60005b828110156105925784890151825560018201915060208501945060208101905061056d565b868310156105af57848901516105ab601f8916826104b8565b8355505b6001600288020188555050505b505050505050565b610421806105d36000396000f3fe608060405234801561001057600080fd5b506004361061004c5760003560e01c806306fdde031461005157806318160ddd1461006f57806370a082311461008d57806395d89b41146100bd575b600080fd5b6100596100db565b60405161006691906102a5565b60405180910390f35b610077610169565b60405161008491906102e0565b60405180910390f35b6100a760048036038101906100a2919061035e565b61016f565b6040516100b491906102e0565b60405180910390f35b6100c5610187565b6040516100d291906102a5565b60405180910390f35b600080546100e8906103ba565b80601f0160208091040260200160405190810160405280929190818152602001828054610114906103ba565b80156101615780601f1061013657610100808354040283529160200191610161565b820191906000526020600020905b81548152906001019060200180831161014457829003601f168201915b505050505081565b60025481565b60036020528060005260406000206000915090505481565b60018054610194906103ba565b80601f01602080910402602001604051908101604052809291908181526020018280546101c0906103ba565b801561020d5780601f106101e25761010080835404028352916020019161020d565b820191906000526020600020905b8154815290600101906020018083116101f057829003601f168201915b505050505081565b600081519050919050565b600082825260208201905092915050565b60005b8381101561024f578082015181840152602081019050610234565b60008484015250505050565b6000601f19601f8301169050919050565b600061027782610215565b6102818185610220565b9350610291818560208601610231565b61029a8161025b565b840191505092915050565b600060208201905081810360008301526102bf818461026c565b905092915050565b6000819050919050565b6102da816102c7565b82525050565b60006020820190506102f560008301846102d1565b92915050565b600080fd5b600073ffffffffffffffffffffffffffffffffffffffff82169050919050565b600061032b82610300565b9050919050565b61033b81610320565b811461034657600080fd5b50565b60008135905061035881610332565b92915050565b600060208284031215610374576103736102fb565b5b600061038284828501610349565b91505092915050565b7f4e487b7100000000000000000000000000000000000000000000000000000000600052602260045260246000fd5b600060028204905060018216806103d257607f821691505b6020821081036103e5576103e461038b565b5b5091905056fea2646970667358221220c11a62605145ab1220ab17c9afc49b84d425eca92ebf359562d449e411b16f7f64736f6c634300081c0033a264697066735822122076a4b59b9cfc4afe4998e03439aa072d4972f1ab66009d43ea2c15a10fe1eaa464736f6c634300081c0033",
    "linkReferences": {},
    "deployedLinkReferences": {}
}